:04000000FEEFFFF020
:1020000000020000CB6ABB6A3A01506BF00EC36E4F
:10201000CD6ABD6A706BC56A1150D8A412EF10F07A
:1020200014EF10F065EF10F006BE22EF10F006502E
:1020300007E1020E055CD8B020EF10F022EF10F09F
:1020400065EF10F0A0EC11F012C00BF013C00CF013
:102050000B2808E10C28D8B430EF10F032EF10F064
:1020600055EF10F00A0E0F026F00CCFF1CF06F004E
:10207000D0FF1DF01002F3501D260B501C240F6ED4
:102080000C501D20106E054A062A030E136EE80E32
:10209000126E000E156E320E146E22EC13F00BC091
:1020A00012F00CC013F0F9EC10F006BE61EF10F066
:1020B000065009E1020E055CD8A061EF10F063EF55
:1020C00010F065EF10F0010ECD6E09500A10D8A483
:1020D0006CEF10F06EEF10F074EF10F0E3EC12F014
:1020E00012C009F013C00AF009500A10D8B47BEFEF
:1020F00010F07DEF10F07FEF10F0010E116E110463
:10210000D8A485EF10F087EF10F0D8EF10F004BEE0
:1021100095EF10F0045007E1020E035CD8B093EF86
:1021200010F095EF10F0D8EF10F0A0EC11F012C005
:102130000BF013C00CF00B2808E10C28D8B4A3EF67
:1021400010F0A5EF10F0C8EF10F00A0E0D026F00AE
:10215000CCFF1CF06F00D0FF1DF00E02F3501D26C7
:102160000B501C240D6E0C501D200E6E034A042AC9
:10217000030E136EE80E126E000E156E320E146E04
:1021800022EC13F00BC012F00CC013F0F9EC10F0BD
:1021900004BED4EF10F0045009E1020E035CD8A095
:1021A000D4EF10F0D6EF10F0D8EF10F0020ECD6E95
:1021B00049EC13F012C007F013C008F00704081030
:1021C000D8A4E5EF10F0E7EF10F0E9EF10F08AEC9B
:1021D00012F0020E07180810D8A4F1EF10F0F3EF78
:1021E00010F00CEF10F06CEC13F00CEF10F0FEEFB1
:1021F000FFF069EF11F0080ECB6ECBBE02EF11F0CD
:1022000004EF11F0FBEF10F09FEF11F0040ECB6E16
:10221000CBBE0DEF11F00FEF11F006EF11F09FEFB5
:1022200011F0020ECB6ECBBE18EF11F01AEF11F0C9
:1022300011EF11F09FEF11F0080ECB6ECBBC23EF26
:1022400011F025EF11F027EF11F09FEF11F0040EC0
:10225000CB6ECBBC2EEF11F030EF11F027EF11F069
:102260009FEF11F0020ECB6ECBBC39EF11F03BEFBC
:1022700011F032EF11F09FEF11F0080ECB6ECBBAD8
:1022800044EF11F046EF11F03DEF11F09FEF11F028
:10229000040ECB6ECBBA4FEF11F051EF11F048EFB7
:1022A00011F09FEF11F0020ECB6ECBBA5AEF11F086
:1022B0005CEF11F053EF11F09FEF11F0040ECB6EB5
:1022C000CBB865EF11F067EF11F05EEF11F09FEF03
:1022D00011F012C014F013C015F01550000AD8B454
:1022E00074EF11F09FEF11F01450000AD8B45EEFB4
:1022F00011F0010AD8B4FBEF10F0030AD8B406EFCE
:1023000011F0010AD8B411EF11F0070AD8B41CEF8C
:1023100011F0010AD8B427EF11F0030AD8B432EF54
:1023200011F0010AD8B43DEF11F00F0AD8B448EF0C
:1023300011F0010AD8B453EF11F09FEF11F0120021
:1023400014681568020ECB6ECBAAA9EF11F0ABEFA3
:1023500011F0B1EF11F0000E156E090E146EC9EFF9
:1023600011F0CBACB6EF11F0B8EF11F0BEEF11F0F9
:10237000000E156E060E146EC9EF11F0CBAEC3EF52
:1023800011F0C5EF11F0C9EF11F0000E156E030E3C
:10239000146E040ECB6ECBA8D0EF11F0D2EF11F07B
:1023A000D8EF11F0000E156E000E146EFDEF11F057
:1023B000CBAADDEF11F0DFEF11F0E5EF11F0000E29
:1023C000156E080E146EFDEF11F0CBACEAEF11F0B4
:1023D000ECEF11F0F2EF11F0000E156E050E146E19
:1023E000FDEF11F0CBAEF7EF11F0F9EF11F0FDEFCB
:1023F00011F0000E156E020E146E080ECB6ECBAAF5
:1024000004EF12F006EF12F00CEF12F0000E156E52
:10241000070E146E24EF12F0CBAC11EF12F013EF95
:1024200012F019EF12F0000E156E040E146E24EF68
:1024300012F0CBAE1EEF12F020EF12F024EF12F0EC
:10244000000E156E010E146E14C012F015C013F0BC
:102450001200176A15BE31EF12F02FEF12F037EFAE
:1024600012F0146C151ED8B0152A010E176E13BE8B
:102470003EEF12F03CEF12F044EF12F0126C131E1C
:10248000D8B0132A010E171A000E196E000E186E1E
:1024900014501510D8B44FEF12F051EF12F079EF3D
:1024A00012F0010E166E59EF12F0D8901436153650
:1024B000162A15AE5EEF12F060EF12F055EF12F033
:1024C000D890183619361450125C15501358D8A0ED
:1024D0006CEF12F06EEF12F073EF12F01450125E08
:1024E0001550135A1880D89015321432162E60EFFA
:1024F00012F01750D8B47FEF12F081EF12F085EF91
:1025000012F0186C191ED8B0192A18C012F019C090
:1025100013F01200C1EF12F00D500F24016E0E5097
:102520001020026EDFEF12F00D500F5C016E0E50A6
:102530001058026EDFEF12F00D500F026F00CCFF4B
:102540001AF06F00D0FF1BF01002F3501B260E5044
:102550000F02F3501B261AC001F01BC002F0DFEF80
:1025600012F00FC012F010C013F00DC014F00EC026
:1025700015F029EC12F012C001F013C002F0DFEFE9
:1025800012F009C01AF00AC01BF01B50000AD8B4A0
:10259000CCEF12F0DFEF12F01A50010AD8B48CEF32
:1025A00012F0030AD8B494EF12F0010AD8B49CEFE9
:1025B00012F0070AD8B4B1EF12F0DFEF12F06000AA
:1025C00007F0CDFF1200000E156E000E146E010E06
:1025D000CB6ECBA8EEEF12F0F0EF12F0F6EF12F0A8
:1025E000000E156E040E146E1DEF13F0CBAAFBEF58
:1025F00012F0FDEF12F003EF13F0000E156E030E54
:10260000146E1DEF13F0CBAC08EF13F00AEF13F0CC
:1026100010EF13F0000E156E020E146E1DEF13F086
:10262000CBAE15EF13F017EF13F01DEF13F0000E04
:10263000156E010E146E1DEF13F014C012F015C0CC
:1026400013F01200000E176E000E166E3DEF13F021
:10265000000E196E000E186E30EF13F0184A192A8A
:102660001450185C15501958D8A039EF13F03BEFEF
:1026700013F02EEF13F0164A172A1250165C13505F
:102680001758D8A046EF13F048EF13F028EF13F0D7
:102690001200000E156E000E146E020ECB6ECBA84B
:1026A00054EF13F056EF13F05AEF13F0000E156EBF
:1026B000010E146E080ECB6ECBA861EF13F063EF22
:1026C00013F067EF13F0000E156E020E146E14C0B7
:1026D00012F015C013F01200116A000E0A6E000EFF
:1026E000096E000E066E000E056E000E046E000EE2
:1026F000036E000E106E000E0F6E000E0E6E000EBA
:102700000D6ECD6A120000EE01F0110EEE6AE806C1
:08271000FDE1000102EF10F0F1
:020000040001F9
:04FFFC0083EF13F08C
:020000040030CA
:0A000000F8FFFFFF9FFFFFFFFFFF67
:00000001FF
