:04000000FEEFFFF020
:102000000054686520496E70757420566F6C746159
:1020100067653A00252E326600696E66006E616E55
:05202000002056000045
:102026000001E76B35C0EAF036C0EBF037C0ECF0E4
:1020360038C0EDF0EDBF24EF10F022EF10F038EFCE
:1020460010F0010EE76FEAC001F0EBC002F0ECC041
:1020560003F0EDC004F0D4EC22F001C0EAF002C0B7
:10206600EBF003C0ECF004C0EDF0000E0001E96FE8
:10207600000EE86F68C0D7F069C0D8F0E751D8B451
:1020860047EF10F049EF10F05DEF10F0E751D8A4DC
:102096004FEF10F051EF10F057EF10F0000ECD6F2C
:1020A6002B0ECC6F5BEF10F0000ECD6F2D0ECC6FAC
:1020B600CCC0E7F0EAC001F0EBC002F0ECC003F0E0
:1020C600EDC004F0A2EC1FF001040210D8A46EEFDC
:1020D60010F070EF10F09AEF10F00001E751D8B44D
:1020E60077EF10F079EF10F082EF10F0E7C06CF0A8
:1020F600D707D8A0D807000EE96F010EE86FE851A0
:102106006C0F016E190E026EB7EC22F00001FD0E87
:10211600D727FF0ED82334C00EF06C0E0F6ED7C033
:1021260010F0D8C011F092EC21F0E4EF14F0EAC000
:1021360001F0EBC002F0ECC003F0EDC004F0A2EC3D
:102146001FF001500210D8A4ABEF10F0ADEF10F065
:10215600C8EF10F00001E751D8B4B4EF10F0B6EFB5
:1021660010F0BFEF10F0E7C06CF0D707D8A0D80783
:10217600000EE96F010EE86FE8516C0F016E1D0E3F
:10218600026EB7EC22F089EF10F0000E0001EE6F40
:10219600000EEF6F800EF06F3F0EF16F000ED66FE0
:1021A600000ED56FEAC001F0EBC002F0ECC003F000
:1021B600EDC004F0000E056E000E066E000E076EF2
:1021C600000E086ED3EC20F0D8B0ECEF10F0EEEF76
:1021D60010F0CDEF11F0FBEF10F0D9C0EEF0DAC041
:1021E600EFF0DBC0F0F0DCC0F1F00001D54BD62BF0
:1021F600EEC00FF0EFC010F0F0C011F0F1C012F019
:10220600000E136E000E146E200E156E410E166E25
:1022160040EC17F00FC0D9F010C0DAF011C0DBF0B7
:1022260012C0DCF00001D951EA5D016EDA51EB59BA
:10223600026EDB51EC59036EDC51ED59046EC3ECB2
:1022460021F004BE32EF11F004500310021009E130
:10225600020E015CD8A032EF11F034EF11F0F0EF6E
:1022660010F0D9C028F0DAC029F0DBC02AF0DCC0B3
:102276002BF0EAC02CF0EBC02DF0ECC02EF0EDC038
:102286002FF020EC1FF0D8A04BEF11F04DEF11F01E
:10229600F0EF10F00001EE51EA5D016EEF51EB59DF
:1022A600026EF051EC59036EF151ED59046EC3EC18
:1022B60021F004BE6CEF11F004500310021007E188
:1022C600020E015CD8B06AEF11F06CEF11F0B4EFBA
:1022D60011F0EEC0EAF0EFC0EBF0F0C0ECF0F1C0A8
:1022E600EDF0CDEF11F0EEC001F0EFC002F0F0C05E
:1022F60003F0F1C004F0000E056E000E066E200E0F
:10230600076E410E086E65EC19F001C0EEF002C0D2
:10231600EFF003C0F0F004C0F1F00001D507D8A03B
:10232600D607EE51EA5D016EEF51EB59026EF051A0
:10233600EC59036EF151ED59046EC3EC21F004BE65
:10234600B2EF11F004500310021007E1020E015C17
:10235600D8B0B0EF11F0B2EF11F0B4EF11F06CEFAE
:1023660011F0EAC028F0EBC029F0ECC02AF0EDC06D
:102376002BF0EEC02CF0EFC02DF0F0C02EF0F1C027
:102386002FF020EC1FF0D8A0CBEF11F0CDEF11F01D
:1023960076EF11F039C0CFF0CFC0D0F000016BBF9F
:1023A600D7EF11F0D9EF11F0DFEF11F06AC0C8F0E6
:1023B6006BC0C9F0E3EF11F0000EC96F060EC86FCF
:1023C600C8C0D3F0C9C0D4F0D34BD42B660ED019F5
:1023D600D8A4F0EF11F0F2EF11F012EF12F0D6BF21
:1023E600F9EF11F0F7EF11F005EF12F0000EEE6FB6
:1023F600000EEF6F800EF06F3F0EF16F000ED66F7E
:10240600000ED56F670ECF19D8B40CEF12F00EEF91
:1024160012F012EF12F0D551D327D651D423000E65
:10242600DE6F000EDD6FEAC0DFF0EBC0E0F0ECC05F
:10243600E1F0EDC0E2F0EEC0D9F0EFC0DAF0F0C0A6
:10244600DBF0F1C0DCF0A3EF12F0DFC001F0E0C07A
:1024560002F0E1C003F0E2C004F0EEC005F0EFC008
:1024660006F0F0C007F0F1C008F065EC19F001C005
:102476001AF002C01BF003C01CF004C01DF02DECC6
:102486001BF01AC0E3F01BC0E4F01CC0E5F01DC051
:10249600E6F0E3C001F0E4C002F0E5C003F0E6C0F8
:1024A60004F09DEC1EF001C0D1F002C0D2F0DFC0F6
:1024B60028F0E0C029F0E1C02AF0E2C02BF0E3C02A
:1024C60013F0E4C014F0E5C015F0E6C016F0EEC057
:1024D6000FF0EFC010F0F0C011F0F1C012F040ECB8
:1024E60017F00FC02CF010C02DF011C02EF012C046
:1024F6002FF013EC22F028C0DFF029C0E0F02AC04C
:10250600E1F02BC0E2F0EEC001F0EFC002F0F0C047
:1025160003F0F1C004F0000E056E000E066E200EEC
:10252600076E410E086E65EC19F001C0EEF002C0B0
:10253600EFF003C0F0F004C0F1F00001DD4BDE2B3C
:10254600D351DD5DDE51800A3A6ED451800A3A5885
:10255600D8A0B0EF12F0B2EF12F028EF12F0EEC0F2
:102566000FF0EFC010F0F0C011F0F1C012F0000E45
:10257600136E000E146EA00E156E400E166E40EC15
:1025860017F00FC0E3F010C0E4F011C0E5F012C080
:10259600E6F0DFC028F0E0C029F0E1C02AF0E2C092
:1025A6002BF0E3C02CF0E4C02DF0E5C02EF0E6C021
:1025B6002FF020EC1FF0D8B0E3EF12F0E5EF12F0A9
:1025C600F0EF12F0000E0001E36F000EE46F000E54
:1025D600E56F000EE66F19EF13F0DFC001F0E0C003
:1025E60002F0E1C003F0E2C004F0E3C005F0E4C08D
:1025F60006F0E5C007F0E6C008F0D3EC20F0D8A05E
:1026060007EF13F009EF13F019EF13F00001D1B142
:102616000FEF13F011EF13F019EF13F0000EE36F45
:10262600000EE46F000EE56F000EE66FEAC001F0E3
:10263600EBC002F0ECC003F0EDC004F0E3C005F01F
:10264600E4C006F0E5C007F0E6C008F0E5EC14F0DB
:1026560001C0DFF002C0E0F003C0E1F004C0E2F028
:10266600DFC028F0E0C029F0E1C02AF0E2C02BF07C
:10267600000E136E000E146E200E156E410E166EB1
:10268600D9C00FF0DAC010F0DBC011F0DCC012F0D8
:1026960040EC17F00FC02CF010C02DF011C02EF03A
:1026A60012C02FF020EC1FF0D8A05CEF13F05EEF05
:1026B60013F087EF13F00001D54BD62BD9C00FF0DE
:1026C600DAC010F0DBC011F0DCC012F0000E136EA1
:1026D600000E146E200E156E410E166E40EC17F0AD
:1026E6000FC0D9F010C0DAF011C0DBF012C0DCF078
:1026F600660E0001D019D8A483EF13F085EF13F00E
:1027060087EF13F0D34BD42BD9C0EEF0DAC0EFF03D
:10271600DBC0F0F0DCC0F1F0D5C0C6F0D6C0C7F023
:102726000001CE6B000ECB6F000ECA6F000EDE6F7F
:10273600000EDD6F7EEF14F0DFC001F0E0C002F0A6
:10274600E1C003F0E2C004F0EEC005F0EFC006F011
:10275600F0C007F0F1C008F065EC19F001C01AF0FE
:1027660002C01BF003C01CF004C01DF02DEC1BF0D2
:102776001AC0E3F01BC0E4F01CC0E5F01DC0E6F093
:10278600E3C001F0E4C002F0E5C003F0E6C004F0E7
:102796009DEC1EF002BEDBEF13F0025007E10A0EBD
:1027A600015CD8B0D9EF13F0DBEF13F0EBEF13F0C9
:1027B600E3C001F0E4C002F0E5C003F0E6C004F0B7
:1027C6009DEC1EF001C0D1F002C0D2F0F0EF13F084
:1027D600000E0001D26F090ED16F0001CE51D8A4B0
:1027E600F7EF13F0F9EF13F01DEF14F0C7BF00EF8A
:1027F60014F0FEEF13F01DEF14F0E8516C0FD96ED4
:10280600DA6A2E0EDF6EE84BE92BD707D8A0D80779
:10281600010ECE6F1DEF14F0E8516C0FD96EDA6A17
:10282600300EDF6EE84BE92BD707D8A0D807CA07CA
:10283600D8A0CB07CA51CB11D8A424EF14F026EFA9
:1028460014F00FEF14F0E8516C0FD96EDA6AD1511B
:10285600300FDF6EE84BE92BD707D8A0D807DFC0CB
:1028660028F0E0C029F0E1C02AF0E2C02BF0E3C076
:1028760013F0E4C014F0E5C015F0E6C016F0EEC0A3
:102886000FF0EFC010F0F0C011F0F1C012F040EC04
:1028960017F00FC02CF010C02DF011C02EF012C092
:1028A6002FF013EC22F028C0DFF029C0E0F02AC098
:1028B600E1F02BC0E2F0EEC001F0EFC002F0F0C094
:1028C60003F0F1C004F0000E056E000E066E200E39
:1028D600076E410E086E65EC19F001C0EEF002C0FD
:1028E600EFF003C0F0F004C0F1F00001C607D8A075
:1028F600C707DD4BDE2BD351DD5DDE51800A3A6E14
:10290600D451800A3A58D8B08BEF14F08DEF14F0FA
:102916009BEF14F0E9BF99EF14F0E95109E14B0E72
:10292600E85DD8A099EF14F09BEF14F09FEF13F039
:10293600000EDE6F4F0EDD6FDD516C0FD96EDA6A59
:10294600DF6AE8516C08DD25016E6C0E026EE8C088
:1029560003F0E9C004F058EC22F00001E851DD5D17
:10296600E86FE951DE59E96FE751D8A4BDEF14F0DD
:10297600C0EF14F0010EC1EF14F0000EDD6FDE6B38
:10298600E751D8B4C9EF14F0CBEF14F0D5EF14F03B
:10299600E807D8A0E907E8516C0FD96EDA6A60003B
:1029A6009FF3DFFFDD51D75FDE51D85B34C00EF0F9
:1029B600E8516C0F0F6ED7C010F0D8C011F092EC32
:1029C60021F012000450800B0D6E045004240F6E8B
:1029D60003AEF0EF14F0F2EF14F0F3EF14F00F8003
:1029E6000F50D8B4F9EF14F0FBEF14F00FEF15F019
:1029F6000F28D8A401EF15F003EF15F00BEF15F033
:102A0600000E016E000E026E000E036E000E046EC6
:102A1600038E046A17EF15F0000E016E000E026EAB
:102A2600000E036E000E046E0850800B0E6E0D50E5
:102A36000E18D8B421EF15F023EF15F024EF15F09A
:102A46000D8C085008240E6E07AE2CEF15F02EEFF5
:102A560015F02FEF15F00E800E50D8B435EF15F0A7
:102A660037EF15F04BEF15F00E28D8A43DEF15F013
:102A76003FEF15F047EF15F0000E056E000E066EDF
:102A8600000E076E000E086E078E086A53EF15F0EB
:102A9600000E056E000E066E000E076E000E086E26
:102AA6000F500E5CD8B05AEF15F05CEF15F083EFBF
:102AB60015F00DAC61EF15F063EF15F065EF15F04D
:102AC600800E0D1A0FC010F00EC00FF010C00EF0E1
:102AD60001C010F005C001F010C005F002C010F0F2
:102AE60006C002F010C006F003C010F007C003F0E5
:102AF60010C007F004C010F008C004F010C008F0C1
:102B0600106A0F500EC009F00A6A095E000E0A5AD2
:102B16000ABE97EF15F00A5009E11A0E095CD8A013
:102B260097EF15F099EF15F0D0EF15F00150021060
:102B360003100410D8A4A2EF15F0A5EF15F0010EAE
:102B4600A6EF15F0000E106E000E016E000E026E5E
:102B5600000E036E000E046E0EC00FF0D9EF15F0D6
:102B660010A0B8EF15F0BAEF15F0C0EF15F0D89039
:102B760010300109106EC2EF15F0D890103201A086
:102B8600C7EF15F0C9EF15F0CAEF15F0108E043433
:102B960004320332023201320F2A0E500F5CD8A0E3
:102BA600D7EF15F0D9EF15F0B3EF15F00DBCDEEF4A
:102BB60015F0E0EF15F020EF16F00F50D8A4E6EF71
:102BC60015F0E8EF15F0F2EF15F0000E016E000EAD
:102BD600026E000E036E000E046E3FEF17F00550F6
:102BE600012606500222075003220850042204A0A0
:102BF600FFEF15F001EF16F0ADEF16F010A006EF9F
:102C060016F008EF16F00EEF16F0D8901030010906
:102C1600106E10EF16F0D890103201A015EF16F0D6
:102C260017EF16F018EF16F0108E04340432033244
:102C3600023201320F2AADEF16F00550015C065044
:102C46000258075003580450800A096E0850800A3B
:102C56000958D8B031EF16F033EF16F05EEF16F0E4
:102C66000150055C096E025006580A6E035007585B
:102C76000B6E045008580C6EFF0E0924016EFF0EF1
:102C86000A20026EFF0E0B20036EFF0E0C20046E50
:102C9600800E0D1A106C1050D8A454EF16F056EF93
:102CA60016F066EF16F0010E0126000E0222032230
:102CB600042266EF16F00550015E0650025A0750D0
:102CC600035A0850045A0150021003100410D8A4E5
:102CD6006FEF16F071EF16F0A6EF16F01050D8A4AD
:102CE60077EF16F079EF16F0A6EF16F0000E016EEC
:102CF600000E026E000E036E000E046E3FEF17F01C
:102D0600D890013602360336043610AE8DEF16F033
:102D16008FEF16F090EF16F0018010A095EF16F0E9
:102D260097EF16F09BEF16F0D88010369DEF16F051
:102D3600D89010360F50D8B4A3EF16F0A5EF16F0C2
:102D4600A6EF16F00F0603AEABEF16F0ADEF16F0DA
:102D560083EF16F00E6A10AEB3EF16F0B5EF16F06D
:102D6600CDEF16F010C009F07F0E0916D8B4BEEFED
:102D760016F0C0EF16F0C4EF16F0010E0E6ECDEF92
:102D860016F001A0C9EF16F0CBEF16F0CDEF16F056
:102D9600C0EF16F00E50D8B4D3EF16F0D5EF16F0FC
:102DA60000EF17F0010E0126000E02220322042274
:102DB60004A0E0EF16F0E2EF16F000EF17F001C006
:102DC60009F002C00AF003C00BF004C00CF00C348A
:102DD6000C320B320A32093209C001F00AC002F085
:102DE6000BC003F00CC004F00F28D8B4FDEF16F0AA
:102DF600FFEF16F000EF17F00F2A0F28D8B406EFF2
:102E060017F008EF17F010EF17F00F50D8A40EEFD9
:102E160017F010EF17F021EF17F0000E016E000EFD
:102E2600026E000E036E000E046E0F50D8A41EEF45
:102E360017F020EF17F021EF17F00D6A0FA026EF1D
:102E460017F028EF17F02BEF17F0038E2CEF17F083
:102E5600039ED8900F30046E0DAE34EF17F036EFA8
:102E660017F037EF17F0048E01C001F002C002F030
:102E760003C003F004C004F012001250800B1B6E56
:102E860012501224216E11AE4BEF17F04DEF17F0D2
:102E96004EEF17F021802150D8B454EF17F056EFBB
:102EA60017F069EF17F02128D8A45CEF17F05EEF52
:102EB60017F066EF17F0000E0F6E000E106E000E84
:102EC600116E000E126E118E71EF17F0000E0F6E5E
:102ED600000E106E000E116E000E126E1650800B54
:102EE6001B1A16501624206E15AE7CEF17F07EEFD7
:102EF60017F07FEF17F020802050D8B485EF17F039
:102F060087EF17F09AEF17F02028D8A48DEF17F067
:102F16008FEF17F097EF17F0000E136E000E146E7A
:102F2600000E156E000E166E158EA2EF17F0000E2F
:102F3600136E000E146E000E156E000E166E2050E7
:102F4600D8B4A8EF17F0AAEF17F0B2EF17F0215098
:102F5600D8A4B0EF17F0B2EF17F0BCEF17F0000EE1
:102F66000F6E000E106E000E116E000E126E64EFE4
:102F760019F015500F026F00CCFF26F06F00D0FF3E
:102F860027F026501C6E1D6A1E6A1F6A2750226E85
:102F9600236A246A256A145010026F00CCFF26F0BB
:102FA6006F00D0FF27F026501C26000E1D221E2281
:102FB6001F2227502226000E2322242225221350C8
:102FC60011026F00CCFF26F06F00D0FF27F02650CD
:102FD6001C26000E1D221E221F2227502226000E0E
:102FE6002322242225221EC01FF01DC01EF01CC055
:102FF6001DF01C6A135010026F00CCFF26F06F0004
:10300600D0FF27F026501C2627501D22000E1E2218
:10301600000E1F2214500F026F00CCFF26F06F0027
:10302600D0FF27F026501C2627501D22000E1E22F8
:10303600000E1F221EC01FF01DC01EF01CC01DF07A
:103046001C6A13500F026F00CCFF26F06F00D0FFF2
:1030560027F026501C2627501D22000E1E22000E89
:103066001F22155010026F00CCFF26F06F00D0FF14
:1030760027F02650222627502322000E2422000E57
:103086002522145011026F00CCFF26F06F00D0FFEE
:1030960027F02650222627502322000E2422000E37
:1030A6002522155011026F00CCFF26F06F00D0FFCD
:1030B60027F02650176E2750186E196A1A6A19C01B
:1030C6001AF018C019F017C018F0176A1750222600
:1030D60018502322195024221A5025221CC017F0FA
:1030E6001DC018F01EC019F01FC01AF0190E81EF8E
:1030F60018F0D8901A32193218321732E82E7CEFAF
:1031060018F01750222618502322195024221A503C
:1031160025221EC01FF01DC01EF01CC01DF01C6A1B
:10312600205021C017F0186A1726000E1822820EAA
:103136001724266EFF0E1820276EB7EF18F0D890CA
:1031460022362336243625361FAEACEF18F0AEEF06
:1031560018F0AFEF18F02280D8901C361D361E36B8
:103166001F362606D8A0270624AEBCEF18F0BEEF01
:1031760018F0A2EF18F0206A1FAEC4EF18F0C6EFE1
:1031860018F0EAEF18F0FF0E1C14176EFF0E1D1450
:10319600186EFF0E1E14196E7F0E1F141A6E17502E
:1031A600181019101A10D8B4DBEF18F0DDEF18F06C
:1031B600E1EF18F0010E206EEAEF18F022A0E6EF1C
:1031C60018F0E8EF18F0EAEF18F0DDEF18F02050ED
:1031D600D8B4F0EF18F0F2EF18F016EF19F0010E70
:1031E6002226000E23222422252225A0FDEF18F0F8
:1031F600FFEF18F016EF19F022C017F023C018F0F1
:1032060024C019F025C01AF01A341A3219321832AD
:10321600173217C022F018C023F019C024F01AC0C4
:1032260025F0264A272A27BE21EF19F0275008E164
:103236002628D8A021EF19F023EF19F02DEF19F069
:10324600000E226E000E236E800E246E7F0E256EFB
:103256005AEF19F027BE3AEF19F0275006E1260477
:10326600D8B038EF19F03AEF19F045EF19F0000E23
:10327600226E000E236E000E246E000E256E1B6A53
:103286005AEF19F026C021F0FF0E2216FF0E231664
:103296007F0E2416000E251621A054EF19F056EFC6
:1032A60019F057EF19F0248ED8902130256E1B5057
:1032B600251222C00FF023C010F024C011F025C043
:1032C60012F012000450800B116E04500424186E84
:1032D60003AE70EF19F072EF19F073EF19F0188062
:1032E6001850D8B479EF19F07BEF19F08FEF19F079
:1032F6001828D8A481EF19F083EF19F08BEF19F095
:10330600000E016E000E026E000E036E000E046EBD
:10331600038E046A97EF19F0000E016E000E026E1E
:10332600000E036E000E046E0850800B111A085032
:103336000824196E07AEA2EF19F0A4EF19F0A5EF55
:1033460019F019801950D8B4ABEF19F0ADEF19F098
:10335600C1EF19F01928D8A4B3EF19F0B5EF19F099
:10336600BDEF19F0000E056E000E066E000E076E1C
:10337600000E086E078E086AC9EF19F0000E056E7A
:10338600000E066E000E076E000E086E0550061043
:1033960007100810D8A4D2EF19F0D4EF19F0ECEF0B
:1033A60019F0000E016E000E026E000E036E000E86
:1033B600046E800E03127F0E04121150041201C017
:1033C60001F002C002F003C003F004C004F02CEFC9
:1033D6001BF01850D8A4F2EF19F0F4EF19F0FEEF35
:1033E60019F0000E016E000E026E000E036E000E46
:1033F600046E2CEF1BF0195018C009F00A6A095E1A
:10340600000E0A5A7F0E0924126E000E0A20136E51
:1034160001C00DF002C00EF003C00FF004C010F0A2
:10342600000E016E000E026E000E036E000E046E9C
:10343600000E146E000E156E000E166E000E176E40
:10344600196A5EEF1AF01950D8B42CEF1AF02EEF65
:103456001AF045EF1AF0D8900D360E360F361036A4
:10346600D890013602360336043617AE3DEF1AF011
:103476003FEF1AF040EF1AF00180D8901436153657
:103486001636173605500D5C06500E5807500F5865
:1034960008501058D8A052EF1AF054EF1AF05DEF0A
:1034A6001AF0178C05500D5E06500E5A07500F5A2B
:1034B6000850105A192A190E196464EF1AF066EFAB
:1034C6001AF026EF1AF00D500E100F101010D8B487
:1034D6006FEF1AF071EF1AF089EF1AF0148089EF86
:1034E6001AF0D890013602360336043617AE7EEF50
:1034F6001AF080EF1AF081EF1AF00180D890143696
:103506001536163617361206D8A0130603AE8EEFFA
:103516001AF090EF1AF074EF1AF0196A17AE96EFD8
:103526001AF098EF1AF0BCEF1AF0FF0E1414096E99
:10353600FF0E15140A6EFF0E16140B6E7F0E17146F
:103546000C6E09500A100B100C10D8B4ADEF1AF01F
:10355600AFEF1AF0B3EF1AF0010E196EBCEF1AF0C6
:1035660001A0B8EF1AF0BAEF1AF0BCEF1AF0AFEFFD
:103576001AF01950D8B4C2EF1AF0C4EF1AF0E8EFF7
:103586001AF0010E0126000E02220322042204A0D4
:10359600CFEF1AF0D1EF1AF0E8EF1AF001C009F0F8
:1035A60002C00AF003C00BF004C00CF00C340C325D
:1035B6000B320A32093209C001F00AC002F00BC010
:1035C60003F00CC004F0124A132A13BEF3EF1AF0EC
:1035D600135008E11228D8A0F3EF1AF0F5EF1AF00D
:1035E60000EF1BF0000E136E1268000E016E000E47
:1035F600026E000E036E000E046E13BE0DEF1BF07E
:10360600135006E11204D8B00BEF1BF00DEF1BF0C0
:103616001AEF1BF0000E136E000E126E000E016EF6
:10362600000E026E000E036E000E046E116A12C0CA
:1036360018F018A021EF1BF023EF1BF026EF1BF06C
:10364600038E27EF1BF0039ED8901830046EE0EF30
:1036560019F0120060C02AF061C02BF062C02CF095
:1036660063C02DF01AC02AF01BC02BF01CC02CF032
:103676001DC02DF0810E1E6EFF0E1F6E2AC020F09B
:103686002BC021F02CC022F02DC023F0180E51EFD4
:103696001BF0D8902332223221322032E82E4CEF12
:1036A6001BF020501E24286E000E1F20296E29BEF6
:1036B60066EF1BF0295009E1170E285CD8A066EFCB
:1036C6001BF068EF1BF072EF1BF01AC01AF01BC05C
:1036D6001BF01CC01CF01DC01DF035EF1CF029BEF0
:1036E60077EF1BF079EF1BF0E9EF1BF028C01EF017
:1036F600FF0E1F6EFF0E206E7F0E216E000E226ED5
:103706001E6688EF1BF090EF1BF022342232213226
:1037160020321F321E2E83EF1BF01FC024F020C064
:1037260025F021C026F022C027F024502A141E6E50
:1037360025502B141F6E26502C14206E27502D1446
:10374600216E1E501F1020102110D8A4ADEF1BF0C3
:10375600AFEF1BF0B1EF1BF068EF1BF02AC01EF0B5
:103766002BC01FF02CC020F02DC021F0200EC1EF81
:103776001BF0D890213220321F321E32E82EBCEFC9
:103786001BF01E501F1020102110D8B4CDEF1BF0D7
:10379600CFEF1BF0D7EF1BF024502A2625502B2203
:1037A60026502C2227502D22241C1E6E251C1F6EEF
:1037B600261C206E271C216E1E502A161F502B1603
:1037C60020502C1621502D162DEF1CF02AC01EF06D
:1037D6002BC01FF02CC020F02DC021F0200EF9EFD9
:1037E6001BF0D890213220321F321E32E82EF4EF21
:1037F6001BF01E501F1020102110D8A405EF1CF03E
:1038060007EF1CF011EF1CF0000E2A6E000E2B6E57
:10381600000E2C6E000E2D6E2DEF1CF0D8902A3463
:103826001E6E2B341F6E2C34206E2D34216E1E50CE
:103836001F1020102110D8B423EF1CF025EF1CF028
:103846002DEF1CF0000E2A6E000E2B6E800E2C6ED5
:10385600BF0E2D6E2AC01AF02BC01BF02CC01CF018
:103866002DC01DF012003C50D96EDA6A6F007FFF42
:10387600F6FF200EF76E000EF86E0800F550250ACA
:10388600D8A448EF1CF04AEF1CF029EF1DF03C507D
:10389600D96EDA6ADF2A000E0001696F000E686FC2
:1038A60068C05DF06A696B693C50D96EDA6A6F0070
:1038B6007FFFF6FF200EF76E000EF86E0800F5503B
:1038C6002E0AD8A469EF1CF06BEF1CF079EF1CF000
:1038D6003C50D96EDA6ADF2A3CC001F03DC002F0E6
:1038E60021EC20F001C06AF002C06BF03C50D96EAA
:1038F600DA6ADF50446E600013F1F6FF200EF76EB1
:10390600000EF86E08006F00D4FF43F095EF1CF030
:10391600442AA4EF1CF06C0E436EA4EF1CF0436A1D
:10392600A4EF1CF043504C0AD8B48BEF1CF02A0AC3
:10393600D8B48EEF1CF00A0AD8B48BEF1CF092EFC5
:103946001CF0600013F1F6FF200EF76E000EF86E05
:103956000800F550660AD8A4B3EF1CF0B5EF1CF0CA
:1039660023EF1DF0E9EF1CF03D50D96EDA6A6F00C7
:103976007CFF3EF0040EDF263E50D96EDA6A6F00F9
:1039860078FF3FF06F0078FF40F06F0078FF41F05E
:103996006F0078FF42F0F4EF1CF03D50D96EDA6A02
:1039A6006F007CFF3EF0040EDF263E50D96EDA6AC9
:1039B6006F0078FF3FF06F0078FF40F06F0078FFF0
:1039C60041F06F0078FF42F0F4EF1CF043504C0AD0
:1039D600D8B4D0EF1CF0200AD8B4B7EF1CF0F4EF3F
:1039E6001CF03C50D96EDA6A4428DF6E14EF1DF0E5
:1039F6003BC034F03FC035F040C036F041C037F030
:103A060042C038F0600013F1F6FF200EF76E000E8C
:103A1600F86E08006F00D4FF39F013EC10F03DEF9C
:103A26001DF0600013F1F6FF200EF76E000EF86E23
:103A36000800F550660AD8B4FBEF1CF023EF1DF022
:103A46003C50D96EDA6ADF2A3DEF1DF03C50D96E44
:103A5600DA6A6F007FFFF6FF200EF76E000EF86E33
:103A66000800F550016E026A3BC003F07DEC20F0C1
:103A760023EF1DF01200096E0950D8B445EF1DF072
:103A860047EF1DF069EF1DF004BE4EEF1DF04CEF41
:103A96001DF069EF1DF001C005F002C006F003C07D
:103AA60007F004C008F0051E061E071E081E052A9C
:103AB600000E06220722082205C00BF006C00CF0F5
:103AC60007C00DF008C00EF071EF1DF001C00BF03D
:103AD60002C00CF003C00DF004C00EF0015002103D
:103AE60003100410D8A47AEF1DF07CEF1DF086EFCA
:103AF6001DF0000E016E000E026E000E036E000E2B
:103B0600046E17EF1EF0960E0A6E90EF1DF00A2A4D
:103B1600D8900E320D320C320B32000E0B14056E9D
:103B2600000E0C14066E000E0D14076EFE0E0E141B
:103B3600086E0550061007100810D8A4A5EF1DF052
:103B4600A7EF1DF08AEF1DF0B5EF1DF00A2A010E52
:103B56000B26000E0C220D220E22D8900E320D32AC
:103B66000C320B32000E0B14056E000E0C14066E92
:103B7600000E0D14076EFF0E0E14086E055006108B
:103B860007100810D8A4CAEF1DF0CCEF1DF0A9EF5E
:103B96001DF0D4EF1DF00A06D8900B360C360D3604
:103BA6000E360DBED9EF1DF0DBEF1DF0E3EF1DF075
:103BB600020E0A60E1EF1DF0E3EF1DF0CEEF1DF0FF
:103BC6000AB0E8EF1DF0EAEF1DF0EBEF1DF00D9ED9
:103BD600D8900A320AC005F0066A076A086A05C064
:103BE60008F0076A066A056A05500B1206500C12A1
:103BF60007500D1208500E120950D8B405EF1EF0EA
:103C060007EF1EF00FEF1EF004BE0EEF1EF00CEFD6
:103C16001EF00FEF1EF00E8E0BC001F00CC002F06E
:103C26000DC003F00EC004F01200CA6ABA6A3A0167
:103C3600406B070EC26E416BCB6ABB6A506BC36AA0
:103C4600516BCC6ABC6A606BC46ACD6ABD6A706B24
:103C5600C56A20EC23F03E01F881F8B135EF1EF07D
:103C660037EF1EF030EF1EF0EF516F00C0FB55F03E
:103C7600566A55C056F0556A55105B6E56505C6EC6
:103C86005BC001F05CC002F0000E02BEFF0E036EC8
:103C9600046E010E3EEC1DF001C00FF002C010F0E4
:103CA60003C011F004C012F0330E136E330E146EFF
:103CB600530E156E3A0E166E40EC17F00FC057F005
:103CC60010C058F011C059F012C05AF06F00BFFB77
:103CD600CDFF6F00C3FBCBFFBC0E0001F26F140ECD
:103CE600F36F57C0F4F058C0F5F059C0F6F05AC05B
:103CF600F7F0F0EC22F0BC0E016E210E026E61ECC4
:103D060021F00BEC23F0000E0A6E010E0B6E0B5029
:103D1600D8A4200E0C6E010E79EC22F0000E0A6E6D
:103D2600BC0E0B6E0C6A020E79EC22F02EEF1EF022
:103D3600FEEFFFF0033404340A6E0A50D8A4A6EF4F
:103D46001EF0A8EF1EF0B2EF1EF0000E016E000E80
:103D5600026E000E036E000E046E1FEF1FF001C010
:103D660005F002C006F003C007F004C008F0200EFC
:103D7600C2EF1EF0D8900832073206320532E82E1E
:103D8600BDEF1EF00550096E038EFF0E0116FF0EE5
:103D96000216FF0E0316000E0416960E0A5E0ABEE3
:103DA600D9EF1EF0D7EF1EF0EFEF1EF00A50800A93
:103DB600970FD8B0E1EF1EF0E3EF1EF0E5EF1EF02F
:103DC600A8EF1EF0D89004320332023201320A3EC6
:103DD600E5EF1EF007EF1FF01F0E0A64F5EF1EF069
:103DE600F7EF1EF0FFEF1EF0A8EF1EF0D890013699
:103DF6000236033604360A060A50D8A405EF1FF029
:103E060007EF1FF0F9EF1EF00950D8B40DEF1FF0C1
:103E16000FEF1FF017EF1FF0041E031E021E016CAA
:103E2600000E02220322042201C001F002C002F0A9
:103E360003C003F004C004F01200000E2814306E14
:103E4600000E2914316E800E2A14326E7F0E2B144A
:103E5600336E3050311032103310D8A435EF1FF0C6
:103E660037EF1FF03FEF1FF0000E286E000E296E91
:103E7600000E2A6E000E2B6E000E2C14306E000EF5
:103E86002D14316E800E2E14326E7F0E2F14336E6B
:103E96003050311032103310D8A454EF1FF056EFC3
:103EA6001FF05EEF1FF0000E2C6E000E2D6E000E42
:103EB6002E6E000E2F6E2BAE63EF1FF065EF1FF018
:103EC6006EEF1FF0286C291ED8B0292A2A1ED8B0FA
:103ED6002A2A800E2B562FAE73EF1FF075EF1FF0B8
:103EE6007EEF1FF02C6C2D1ED8B02D2A2E1ED8B0BA
:103EF6002E2A800E2F56000E281A000E291A000EA2
:103F06002A1A800E2B1A000E2C1A000E2D1A000EDD
:103F16002E1A800E2F1A2C50285C2D5029582E5000
:103F26002A582F502B58D8B09BEF1FF09DEF1FF04B
:103F3600A0EF1FF0D890A1EF1FF0D880120064C048
:103F46000BF065C00CF066C00DF067C00EF001C046
:103F56000BF002C00CF003C00DF004C00EF00BC055
:103F660005F00CC006F00DC007F00EC008F0180EE4
:103F7600C2EF1FF0D8900832073206320532E82E1B
:103F8600BDEF1FF00550096E0A6A09500A10D8A441
:103F9600CFEF1FF0D1EF1FF0F1EF1FF0D8900B34E9
:103FA600056E0C34066E0D34076E0E34086E055021
:103FB600061007100810D8A4E3EF1FF0E5EF1FF076
:103FC600EBEF1FF0000E026E020E016E20EF20F0E6
:103FD600000E026E030E016E20EF20F009280A1073
:103FE600D8A4F8EF1FF0FAEF1FF01CEF20F00BC07B
:103FF60005F00CC006F00DC007F00EC008F0090E63
:10400600D8900536063607360836E82E03EF20F038
:104016000550061007100810D8B414EF20F017EF5B
:1040260020F0010E18EF20F0000E016E026A20EF5C
:1040360020F0000E026E040E016E1200000E076ED6
:10404600000E066E0150D96EDA6A6F007FFFF6FF2A
:10405600200EF76E000EF86E0800F5502A0AD8A456
:1040660037EF20F039EF20F062EF20F00150D96EE3
:10407600DA6ADF2A0250D96EDA6A020EDF26DF5CC0
:10408600D96EDA6A6F0078FF06F06F0078FF07F0E6
:1040960078EF20F00A0E06026F00CCFF03F06F00E7
:1040A600D0FF04F00702F350042605500324066EE1
:1040B600000E0420076E0150D96EDA6ADF2A01501D
:1040C600D96EDA6A6F007FFFF6FF200EF76E000EDC
:1040D600F86E0800F550D00F056E090E056476EFF0
:1040E60020F078EF20F04DEF20F006C001F007C079
:1040F60002F012000350D8B483EF20F085EF20F0D1
:104106008DEF20F00350D8A48BEF20F08DEF20F038
:1041160092EF20F0015060EC23F0D2EF20F0035034
:10412600D96EDA6A090ED926DE50DE10D8B49EEFB3
:1041360020F0A0EF20F0B9EF20F00350D96EDA6A34
:10414600090ED9260350E16EE26A020EE126DE5020
:10415600E65CE650800A086EDE50800A0858D8B041
:10416600B7EF20F0B9EF20F0D2EF20F00350D96E70
:10417600DA6A020ED926DF50046E0350D96EDA6A67
:10418600DF500424D96EDA6A600007F0DFFF0350BF
:10419600D96EDA6A020ED926DE2A000EDD22120058
:1041A600000E0114096E000E02140A6E800E03142E
:1041B6000B6E7F0E04140C6E09500A100B100C10B7
:1041C600D8A4E8EF20F0EAEF20F0F2EF20F0000E9E
:1041D600016E000E026E000E036E000E046E000EDF
:1041E6000514096E000E06140A6E800E07140B6E77
:1041F6007F0E08140C6E09500A100B100C10D8A470
:1042060007EF21F009EF21F011EF21F0000E056E06
:10421600000E066E000E076E000E086E05500118A1
:104226000FE1065002180CE10750031809E1085087
:104236000418D8B421EF21F023EF21F026EF21F066
:10424600D89027EF21F0D880120043EF21F06000CC
:1042560023F0F6FF600027F0F7FF000EF86E1F0E42
:10426600F76403D00800F55007D06F00DBFFE1FFCD
:104276006F00DFFFE2FFE75042EC23F0084A092A0D
:10428600600023F0F6FF600027F0F7FF000EF86EDF
:104296001F0EF76403D00800F55007D06F00DBFF50
:1042A600E1FF6F00DFFFE2FFE7500009D8A45EEFF1
:1042B60021F060EF21F02AEF21F01200000E046ECB
:1042C600000E036E69EF21F0034A042A015003240D
:1042D600D96EDA6ADF50D8A473EF21F075EF21F0BA
:1042E60067EF21F07AEF21F0034A042A022A6000E0
:1042F6000BF0F6FF200EF76E000EF86E0150032449
:10430600D96EDA6A08006F00D7FFDFFFDF50D8A446
:104316008FEF21F091EF21F077EF21F0120011BE1F
:1043260099EF21F097EF21F09DEF21F0000E116E2D
:10433600000E106E000E146E000E136EADEF21F01F
:10434600000E026E200E016E0EC003F07DEC20F012
:10435600134A142A1050135C1450800A126E11501E
:10436600800A1258D8A0BAEF21F0BCEF21F0A3EFD3
:1043760021F00FC009F00EC00AF099EC22F01200ED
:1043860004BEC8EF21F0CAEF21F0D4EF21F001C03E
:1043960001F002C002F003C003F004C004F0EDEF28
:1043A60021F001C005F002C006F003C007F004C00A
:1043B60008F0051E061E071E081E052A000E062208
:1043C6000722082205C001F006C002F007C003F06C
:1043D60008C004F01200000E046E000E036E07EF14
:1043E60022F0000E066E000E056E054A062A0650DD
:1043F60009E1A50E055CD8A003EF22F005EF22F037
:10440600F8EF21F0034A042A0150035C02500458D5
:10441600D8A010EF22F012EF22F0F4EF21F01200F4
:10442600000E2C1A000E2D1A000E2E1A800E2F1AB0
:1044360028C001F029C002F02AC003F02BC004F006
:104446002CC005F02DC006F02EC007F02FC008F0D6
:10445600E5EC14F001C028F002C029F003C02AF0F0
:1044660004C02BF0120046C048F042EF22F045C0CF
:104476003BF0480E3C6E47C03DF036EC1CF0600049
:1044860023F1F6FF200EF76E000EF86E0800F550C9
:104496000009D8A451EF22F053EF22F03AEF22F0B0
:1044A600000E466E000E456E120002C007F001C0F7
:1044B60006F06BEF22F00750D96EDA6ADF50056E10
:1044C600072A0650D96EDA6A600017F0DFFF062A5F
:1044D6000306D8A00406032806E10428D8A476EF2C
:1044E60022F078EF22F05EEF22F012000D6E020E3F
:1044F6000D6080EF22F082EF22F08BEF22F00A505F
:104506000F0B80090E6E0E5051EC23F092EF22F045
:104516000A500F0BC0090E6E0E5051EC23F00BC063
:1045260008F00CC009F028EC21F01200000E0D6E08
:10453600000E0C6EA8EF22F00BC001F0026A0AC052
:1045460003F07DEC20F00C4A0D2A09500C24D96E9C
:10455600DA6ADF500B6E0B50D8A4B4EF22F0B6EF38
:1045660022F09FEF22F0120001C004F0022A02049A
:10457600036E60000FF0F6FF200EF76E000EF86E69
:10458600042A0404D96EDA6A08006F00D7FFDFFF39
:10459600DF50D8A4D1EF22F0D3EF22F0B9EF22F00A
:1045A60012000150021003100410D8B4DDEF22F0FF
:1045B600DFEF22F0E7EF22F0000E011A000E021ADA
:1045C600000E031A800E041A01C001F002C002F0A8
:1045D60003C003F004C004F01200F40E496EF2C0EA
:1045E6004AF0000E4D6E000E4C6E000E546E000E1C
:1045F600536E4A0E456EF3C046F0490E476E36ECD2
:1046060022F00001F2514C24D96EDA6ADF6A1200F8
:10461600000E026E0F0E016EEEEC21F0C36AC56A43
:10462600010E51EC23F0380E51EC23F00C0E51EC38
:1046360023F0060E51EC23F01200C2803A014081AD
:104646003E01F851F30B0409F86FF889FF6BF16B23
:10465600F56BFD6BF66BF76BF36BF46BF88F120073
:1046660000EE60F0660EEE6AE806FDE100EE57F039
:10467600080EEE6AE806FDE1000118EF1EF0076E6F
:1046860060001FF0BBFFBD80BD820000BD92000E22
:10469600026E010E016EEEEC21F01200076E600054
:1046A6001FF0BBFFBD90BD820000BD92000E026EE2
:0C46B600030E016EEEEC21F01200120069
:020000040001F9
:04FFFC0033EF23F0CC
:020000040030CA
:0A000000F8FFFFFF9FFFFFFFFFFF67
:00000001FF
