:0400000057EF30F096
:102000000054686520496E707574206C6967687447
:102010003A00204C555800252E306600696E660047
:052020006E616E00007E
:10600800D120D120D120D120D120D120D120D12000
:10601800D120D120D120D120D120D120D120D120F0
:10602800D120D120D120D120D120D120D120D120E0
:10603800D120D120D120D120D120D120D120D120D0
:10604800D120D120D120D1202B18D120D120D1206E
:10605800D120D120D120D120D120D120D120D120B0
:10606800D120D120D120D120D120D120D120D120A0
:10607800D120D1202B18D120D120D1202B182B189A
:106088002B182B182B182B182B182B18D120D12094
:10609800D120D120D120D1202B182B182B182B1828
:1060A800D120D120FF0029EF44F00001816B39C0D5
:1060B80084F03AC085F03BC086F03CC087F087BFCB
:1060C8006AEF30F068EF30F07EEF30F0010E816F4C
:1060D80084C005F085C006F086C007F087C008F0C8
:1060E8000DEC44F005C084F006C085F007C086F0CA
:1060F80008C087F0000E0001836F000E826FA6C0F3
:1061080071F0A7C072F08151D8B48DEF30F08FEFE5
:1061180030F0A3EF30F08151D8A495EF30F097EF2D
:1061280030F09DEF30F0000E676F2B0E666FA1EF19
:1061380030F0000E676F2D0E666F66C081F084C068
:1061480005F085C006F086C007F087C008F01BEC94
:1061580040F005040610D8A4B4EF30F0B6EF30F0E4
:10616800E5EF30F000018151D8B4BDEF30F0BFEF5A
:1061780030F0C8EF30F081C000F17107D8A0720785
:10618800000E836F010E826F000E8225056E010ED0
:106198008321066E1C0E076E6BEC43F00001FD0EAA
:1061A8007127FF0E722338C013F0000E146E010E13
:1061B800156E71C016F072C017F016EC42F04BEF76
:1061C80035F084C005F085C006F086C007F087C0AA
:1061D80008F01BEC40F005500610D8A4F6EF30F09C
:1061E800F8EF30F016EF31F000018151D8B4FFEF2D
:1061F80030F001EF31F00AEF31F081C000F17107A2
:10620800D8A07207000E836F010E826F000E8225E0
:10621800056E010E8321066E200E076E6BEC43F0AF
:10622800D2EF30F0000E0001886F000E896F800EEB
:106238008A6F3F0E8B6F000E706F000E6F6F84C0F9
:1062480005F085C006F086C007F087C008F0000E8C
:10625800096E000E0A6E000E0B6E000E0C6E4CECF2
:1062680041F0D8B03AEF31F03CEF31F01BEF32F0AB
:1062780049EF31F073C088F074C089F075C08AF0B6
:1062880076C08BF000016F4B702B88C013F089C06B
:1062980014F08AC015F08BC016F0000E176E000EB1
:1062A800186E200E196E410E1A6EA7EC37F013C047
:1062B80073F014C074F015C075F016C076F00001C4
:1062C8007351845D056E74518559066E75518659F2
:1062D800076E76518759086EA7EC42F008BE80EF2A
:1062E80031F008500710061009E1020E055CD8A02D
:1062F80080EF31F082EF31F03EEF31F073C02CF0D7
:1063080074C02DF075C02EF076C02FF084C030F028
:1063180085C031F086C032F087C033F099EC3FF089
:10632800D8A099EF31F09BEF31F03EEF31F000014A
:106338008851845D056E89518559066E8A51865942
:10634800076E8B518759086EA7EC42F008BEBAEF6A
:1063580031F008500710061007E1020E055CD8B0AE
:10636800B8EF31F0BAEF31F002EF32F088C084F0C4
:1063780089C085F08AC086F08BC087F01BEF32F0A9
:1063880088C005F089C006F08AC007F08BC008F005
:10639800000E096E000E0A6E200E0B6E410E0C6E7A
:1063A800CCEC39F005C088F006C089F007C08AF047
:1063B80008C08BF000016F07D8A070078851845D72
:1063C800056E89518559066E8A518659076E8B511B
:1063D8008759086EA7EC42F008BE00EF32F008506B
:1063E8000710061007E1020E055CD8B0FEEF31F089
:1063F80000EF32F002EF32F0BAEF31F084C02CF047
:1064080085C02DF086C02EF087C02FF088C030F0F0
:1064180089C031F08AC032F08BC033F099EC3FF07C
:10642800D8A019EF32F01BEF32F0C4EF31F03DC0C5
:1064380069F069C06AF00001A9BF25EF32F027EFC3
:1064480032F02DEF32F0A8C062F0A9C063F031EF4E
:1064580032F0000E636F060E626F62C06DF063C0AB
:106468006EF06D4B6E2B660E6A19D8A43EEF32F0B3
:1064780040EF32F060EF32F070BF47EF32F045EF97
:1064880032F053EF32F0000E886F000E896F800EE5
:106498008A6F3F0E8B6F000E706F000E6F6F670E66
:1064A8006919D8B45AEF32F05CEF32F060EF32F08D
:1064B8006F516D2770516E23000E786F000E776F45
:1064C80084C079F085C07AF086C07BF087C07CF004
:1064D80088C073F089C074F08AC075F08BC076F0FC
:1064E800F1EF32F079C005F07AC006F07BC007F012
:1064F8007CC008F088C009F089C00AF08AC00BF097
:106508008BC00CF0CCEC39F005C01EF006C01FF0B3
:1065180007C020F008C021F09EEC3CF01EC07DF0C2
:106528001FC07EF020C07FF021C080F07DC005F044
:106538007EC006F07FC007F080C008F016EC3FF080
:1065480005C06BF006C06CF079C02CF07AC02DF055
:106558007BC02EF07CC02FF07DC017F07EC018F0F5
:106568007FC019F080C01AF088C013F089C014F0F9
:106578008AC015F08BC016F0A7EC37F013C030F0C6
:1065880014C031F015C032F016C033F08EEC43F071
:106598002CC079F02DC07AF02EC07BF02FC07CF093
:1065A80088C005F089C006F08AC007F08BC008F0E3
:1065B800000E096E000E0A6E200E0B6E410E0C6E58
:1065C800CCEC39F005C088F006C089F007C08AF025
:1065D80008C08BF00001774B782B6D51775D7851AF
:1065E800800A3E6E6E51800A3E58D8A0FEEF32F007
:1065F80000EF33F076EF32F088C013F089C014F062
:106608008AC015F08BC016F0000E176E000E186EBB
:10661800A00E196E400E1A6EA7EC37F013C07DF06D
:1066280014C07EF015C07FF016C080F079C02CF041
:106638007AC02DF07BC02EF07CC02FF07DC030F0EA
:106648007EC031F07FC032F080C033F099EC3FF06B
:10665800D8B031EF33F033EF33F03EEF33F0000EC4
:1066680000017D6F000E7E6F000E7F6F000E806F41
:1066780067EF33F079C005F07AC006F07BC007F009
:106688007CC008F07DC009F07EC00AF07FC00BF026
:1066980080C00CF04CEC41F0D8A055EF33F057EF28
:1066A80033F067EF33F000016BB15DEF33F05FEF6C
:1066B80033F067EF33F0000E7D6F000E7E6F000E33
:1066C8007F6F000E806F84C005F085C006F086C01D
:1066D80007F087C008F07DC009F07EC00AF07FC0CF
:1066E8000BF080C00CF04CEC35F005C079F006C01A
:1066F8007AF007C07BF008C07CF079C02CF07AC033
:106708002DF07BC02EF07CC02FF0000E176E000E0F
:10671800186E200E196E410E1A6E73C013F074C0F5
:1067280014F075C015F076C016F0A7EC37F013C05A
:1067380030F014C031F015C032F016C033F099ECC7
:106748003FF0D8A0AAEF33F0ACEF33F0D5EF33F039
:1067580000016F4B702B73C013F074C014F075C038
:1067680015F076C016F0000E176E000E186E200E8B
:10677800196E410E1A6EA7EC37F013C073F014C0EF
:1067880074F015C075F016C076F0660E00016A192F
:10679800D8A4D1EF33F0D3EF33F0D5EF33F06D4B0E
:1067A8006E2B73C088F074C089F075C08AF076C00B
:1067B8008BF06FC060F070C061F00001686B000E74
:1067C800656F000E646F000E786F000E776FD2EF62
:1067D80034F079C005F07AC006F07BC007F07CC0C1
:1067E80008F088C009F089C00AF08AC00BF08BC095
:1067F8000CF0CCEC39F005C01EF006C01FF007C045
:1068080020F008C021F09EEC3CF01EC07DF01FC0B7
:106818007EF020C07FF021C080F07DC005F07EC0F2
:1068280006F07FC007F080C008F016EC3FF006BE07
:1068380029EF34F0065007E10A0E055CD8B027EFBF
:1068480034F029EF34F039EF34F07DC005F07EC024
:1068580006F07FC007F080C008F016EC3FF005C0D6
:106868006BF006C06CF03EEF34F0000E00016C6F68
:10687800090E6B6F00016851D8A445EF34F047EF5B
:1068880034F06FEF34F061BF4EEF34F04CEF34F07A
:106898006FEF34F0000E8225D96E010E8321DA6E77
:1068A8002E0EDF6E824B832B7107D8A07207010E64
:1068B800686F6FEF34F0000E8225D96E010E8321C8
:1068C800DA6E300EDF6E824B832B7107D8A0720709
:1068D8006407D8A0650764516511D8A476EF34F031
:1068E80078EF34F05FEF34F0000E8225D96E010E98
:1068F8008321DA6E6B51300FDF6E824B832B710769
:10690800D8A0720779C02CF07AC02DF07BC02EF089
:106918007CC02FF07DC017F07EC018F07FC019F042
:1069280080C01AF088C013F089C014F08AC015F02E
:106938008BC016F0A7EC37F013C030F014C031F05C
:1069480015C032F016C033F08EEC43F02CC079F04D
:106958002DC07AF02EC07BF02FC07CF088C005F0E7
:1069680089C006F08AC007F08BC008F0000E096ED7
:10697800000E0A6E200E0B6E410E0C6ECCEC39F038
:1069880005C088F006C089F007C08AF008C08BF0FF
:1069980000016007D8A06107774B782B6D51775DB0
:1069A8007851800A3E6E6E51800A3E58D8B0DFEFAB
:1069B80034F0E1EF34F0EFEF34F083BFEDEF34F073
:1069C800835109E14B0E825DD8A0EDEF34F0EFEF73
:1069D80034F0EDEF33F0000E786F4F0E776F000E46
:1069E8007725D96E010E7821DA6EDF6A000E3E6EC9
:1069F800010E3F6E82513E5E83513F5A77513E24CD
:106A0800056E78513F20066E000E076E010E086E67
:106A180082C009F083C00AF07AEC42F0000182518A
:106A2800775D826F83517859836F8151D8A41FEFA6
:106A380035F022EF35F0010E23EF35F0000E776FB9
:106A4800786B8151D8B42BEF35F02DEF35F039EF55
:106A580035F08207D8A08307000E8225D96E010E73
:106A68008321DA6E600007F2DFFF7751715F78519A
:106A7800725B38C013F0000E8225146E010E83215C
:106A8800156E71C016F072C017F016EC42F01200C5
:106A98000850800B116E08500824136E07AE57EF8C
:106AA80035F059EF35F05AEF35F013801350D8B45C
:106AB80060EF35F062EF35F076EF35F01328D8A4A3
:106AC80068EF35F06AEF35F072EF35F0000E056EBD
:106AD800000E066E000E076E000E086E078E086A1E
:106AE8007EEF35F0000E056E000E066E000E076E86
:106AF800000E086E0C50800B126E11501218D8B48C
:106B080088EF35F08AEF35F08BEF35F0118C0C50AB
:106B18000C24126E0BAE93EF35F095EF35F096EF2F
:106B280035F012801250D8B49CEF35F09EEF35F056
:106B3800B2EF35F01228D8A4A4EF35F0A6EF35F05F
:106B4800AEEF35F0000E096E000E0A6E000E0B6EE9
:106B5800000E0C6E0B8E0C6ABAEF35F0000E096E43
:106B6800000E0A6E000E0B6E000E0C6E1350125CB7
:106B7800D8B0C1EF35F0C3EF35F0EAEF35F011AC1E
:106B8800C8EF35F0CAEF35F0CCEF35F0800E111AAA
:106B980013C014F012C013F014C012F005C014F0A2
:106BA80009C005F014C009F006C014F00AC006F0C8
:106BB80014C00AF007C014F00BC007F014C00BF0A3
:106BC80008C014F00CC008F014C00CF0146A13507C
:106BD80012C00DF00E6A0D5E000E0E5A0EBEFEEFCC
:106BE80035F00E5009E11A0E0D5CD8A0FEEF35F015
:106BF80000EF36F037EF36F0055006100710081092
:106C0800D8A409EF36F00CEF36F0010E0DEF36F090
:106C1800000E146E000E056E000E066E000E076E56
:106C2800000E086E12C013F040EF36F014A01FEFEC
:106C380036F021EF36F027EF36F0D89014300109FE
:106C4800146E29EF36F0D890143205A02EEF36F0E6
:106C580030EF36F031EF36F0148E08340832073250
:106C680006320532132A1250135CD8A03EEF36F0D4
:106C780040EF36F01AEF36F011BC45EF36F047EF2B
:106C880036F087EF36F01350D8A44DEF36F04FEFBB
:106C980036F059EF36F0000E056E000E066E000E47
:106CA800076E000E086EA6EF37F0095005260A5049
:106CB80006220B5007220C50082208A066EF36F077
:106CC80068EF36F014EF37F014A06DEF36F06FEF81
:106CD80036F075EF36F0D89014300109146E77EF5E
:106CE80036F0D890143205A07CEF36F07EEF36F0FF
:106CF8007FEF36F0148E0834083207320632053238
:106D0800132A14EF37F00950055C0A5006580B5047
:106D180007580850800A0D6E0C50800A0D58D8B0DC
:106D280098EF36F09AEF36F0C5EF36F00550095C6B
:106D38000D6E06500A580E6E07500B580F6E08500D
:106D48000C58106EFF0E0D24056EFF0E0E20066EF9
:106D5800FF0E0F20076EFF0E1020086E800E111A0E
:106D6800146C1450D8A4BBEF36F0BDEF36F0CDEF5D
:106D780036F0010E0526000E062207220822CDEF66
:106D880036F00950055E0A50065A0B50075A0C5047
:106D9800085A0550061007100810D8A4D6EF36F088
:106DA800D8EF36F00DEF37F01450D8A4DEEF36F0F8
:106DB800E0EF36F00DEF37F0000E056E000E066EB0
:106DC800000E076E000E086EA6EF37F0D890053655
:106DD80006360736083614AEF4EF36F0F6EF36F01E
:106DE800F7EF36F0058014A0FCEF36F0FEEF36F032
:106DF80002EF37F0D880143604EF37F0D890143605
:106E08001350D8B40AEF37F00CEF37F00DEF37F026
:106E1800130607AE12EF37F014EF37F0EAEF36F04B
:106E2800126A14AE1AEF37F01CEF37F034EF37F070
:106E380014C00DF07F0E0D16D8B425EF37F027EFEC
:106E480037F02BEF37F0010E126E34EF37F005A054
:106E580030EF37F032EF37F034EF37F027EF37F015
:106E68001250D8B43AEF37F03CEF37F067EF37F00D
:106E7800010E0526000E06220722082208A047EF69
:106E880037F049EF37F067EF37F005C00DF006C06F
:106E98000EF007C00FF008C010F0103410320F3297
:106EA8000E320D320DC005F00EC006F00FC007F00F
:106EB80010C008F01328D8B464EF37F066EF37F045
:106EC80067EF37F0132A1328D8B46DEF37F06FEF58
:106ED80037F077EF37F01350D8A475EF37F077EF26
:106EE80037F088EF37F0000E056E000E066E000EC4
:106EF800076E000E086E1350D8A485EF37F087EFA1
:106F080037F088EF37F0116A13A08DEF37F08FEF65
:106F180037F092EF37F0078E93EF37F0079ED8904F
:106F28001330086E11AE9BEF37F09DEF37F09EEFF0
:106F380037F0088E05C005F006C006F007C007F058
:106F480008C008F012001650800B1F6E1650162449
:106F5800256E15AEB2EF37F0B4EF37F0B5EF37F076
:106F680025802550D8B4BBEF37F0BDEF37F0D0EF10
:106F780037F02528D8A4C3EF37F0C5EF37F0CDEFA9
:106F880037F0000E136E000E146E000E156E000E14
:106F9800166E158ED8EF37F0000E136E000E146EB5
:106FA800000E156E000E166E1A50800B1F1A1A501E
:106FB8001A24246E19AEE3EF37F0E5EF37F0E6EF69
:106FC80037F024802450D8B4ECEF37F0EEEF37F0E8
:106FD80001EF38F02428D8A4F4EF37F0F6EF37F0B3
:106FE800FEEF37F0000E176E000E186E000E196EC9
:106FF800000E1A6E198E09EF38F0000E176E000E8B
:10700800186E000E196E000E1A6E2450D8B40FEFC9
:1070180038F011EF38F019EF38F02550D8A417EFF1
:1070280038F019EF38F023EF38F0000E136E000E29
:10703800146E000E156E000E166ECBEF39F0195057
:1070480013026F00CCFF2AF06F00D0FF2BF02A50FC
:10705800206E216A226A236A2B50266E276A286AC4
:10706800296A185014026F00CCFF2AF06F00D0FF75
:107078002BF02A502026000E2122222223222B50D8
:107088002626000E272228222922175015026F00D3
:10709800CCFF2AF06F00D0FF2BF02A502026000EDC
:1070A8002122222223222B502626000E27222822A4
:1070B800292222C023F021C022F020C021F0206A1A
:1070C800175014026F00CCFF2AF06F00D0FF2BF08E
:1070D8002A5020262B502122000E2222000E232285
:1070E800185013026F00CCFF2AF06F00D0FF2BF06E
:1070F8002A5020262B502122000E2222000E232265
:1071080022C023F021C022F020C021F0206A1750AD
:1071180013026F00CCFF2AF06F00D0FF2BF02A502B
:1071280020262B502122000E2222000E2322195045
:1071380014026F00CCFF2AF06F00D0FF2BF02A500A
:1071480026262B502722000E2822000E292218500E
:1071580015026F00CCFF2AF06F00D0FF2BF02A50E9
:1071680026262B502722000E2822000E29221950ED
:1071780015026F00CCFF2AF06F00D0FF2BF02A50C9
:107188001B6E2B501C6E1D6A1E6A1DC01EF01CC093
:107198001DF01BC01CF01B6A1B5026261C50272202
:1071A8001D5028221E50292220C01BF021C01CF08F
:1071B80022C01DF023C01EF0190EE8EF38F0D89059
:1071C8001E321D321C321B32E82EE3EF38F01B5002
:1071D80026261C5027221D5028221E50292222C054
:1071E80023F021C022F020C021F0206A245025C0BD
:1071F8001BF01C6A1B26000E1C22820E1B242A6E02
:10720800FF0E1C202B6E1EEF39F0D890263627363D
:107218002836293623AE13EF39F015EF39F016EF7B
:1072280039F02680D89020362136223623362A0691
:10723800D8A02B0628AE23EF39F025EF39F009EF57
:1072480039F0246A23AE2BEF39F02DEF39F051EFE6
:1072580039F0FF0E20141B6EFF0E21141C6EFF0E5A
:1072680022141D6E7F0E23141E6E1B501C101D1041
:107278001E10D8B442EF39F044EF39F048EF39F036
:10728800010E246E51EF39F026A04DEF39F04FEF83
:1072980039F051EF39F044EF39F02450D8B457EFB2
:1072A80039F059EF39F07DEF39F0010E2626000E3E
:1072B80027222822292229A064EF39F066EF39F025
:1072C8007DEF39F026C01BF027C01CF028C01DF048
:1072D80029C01EF01E341E321D321C321B321BC048
:1072E80026F01CC027F01DC028F01EC029F02A4A2D
:1072F8002B2A2BBE88EF39F02B5008E12A28D8A07A
:1073080088EF39F08AEF39F094EF39F0000E266EE5
:10731800000E276E800E286E7F0E296EC1EF39F0A1
:107328002BBEA1EF39F02B5006E12A04D8B09FEF0D
:1073380039F0A1EF39F0ACEF39F0000E266E000EEF
:10734800276E000E286E000E296E1F6AC1EF39F0F5
:107358002AC025F0FF0E2616FF0E27167F0E2816C8
:10736800000E291625A0BBEF39F0BDEF39F0BEEFAE
:1073780039F0288ED8902530296E1F50291226C042
:1073880013F027C014F028C015F029C016F0120019
:107398000850800B156E085008241C6E07AED7EFF6
:1073A80039F0D9EF39F0DAEF39F01C801C50D8B435
:1073B800E0EF39F0E2EF39F0F6EF39F01C28D8A405
:1073C800E8EF39F0EAEF39F0F2EF39F0000E056E28
:1073D800000E066E000E076E000E086E078E086A15
:1073E800FEEF39F0000E056E000E066E000E076EF9
:1073F800000E086E0C50800B151A0C500C241D6ED4
:107408000BAE09EF3AF00BEF3AF00CEF3AF01D80B3
:107418001D50D8B412EF3AF014EF3AF028EF3AF0D2
:107428001D28D8A41AEF3AF01CEF3AF024EF3AF0EE
:10743800000E096E000E0A6E000E0B6E000E0C6E2A
:107448000B8E0C6A30EF3AF0000E096E000E0A6ED1
:10745800000E0B6E000E0C6E09500A100B100C106B
:10746800D8A439EF3AF03BEF3AF053EF3AF0000E78
:10747800056E000E066E000E076E000E086E800E7A
:1074880007127F0E08121550081205C005F006C035
:1074980006F007C007F008C008F093EF3BF01C5057
:1074A800D8A459EF3AF05BEF3AF065EF3AF0000EE6
:1074B800056E000E066E000E076E000E086E93EF46
:1074C8003BF01D501CC00DF00E6A0D5E000E0E5AEA
:1074D8007F0E0D24166E000E0E20176E05C011F0DB
:1074E80006C012F007C013F008C014F0000E056EB5
:1074F800000E066E000E076E000E086E000E186E67
:10750800000E196E000E1A6E000E1B6E1D6AC5EF76
:107518003AF01D50D8B493EF3AF095EF3AF0ACEF4B
:107528003AF0D8901136123613361436D8900536FC
:107538000636073608361BAEA4EF3AF0A6EF3AF047
:10754800A7EF3AF00580D890183619361A361B3648
:107558000950115C0A5012580B5013580C5014580B
:10756800D8A0B9EF3AF0BBEF3AF0C4EF3AF01B8C71
:107578000950115E0A50125A0B50135A0C50145AE3
:107588001D2A190E1D64CBEF3AF0CDEF3AF08DEFBE
:107598003AF01150121013101410D8B4D6EF3AF074
:1075A800D8EF3AF0F0EF3AF01880F0EF3AF0D890D0
:1075B80005360636073608361BAEE5EF3AF0E7EF34
:1075C8003AF0E8EF3AF00580D890183619361A36AE
:1075D8001B361606D8A0170607AEF5EF3AF0F7EFF8
:1075E8003AF0DBEF3AF01D6A1BAEFDEF3AF0FFEF21
:1075F8003AF023EF3BF0FF0E18140D6EFF0E19142E
:107608000E6EFF0E1A140F6E7F0E1B14106E0D50A7
:107618000E100F101010D8B414EF3BF016EF3BF01B
:107628001AEF3BF0010E1D6E23EF3BF005A01FEF94
:107638003BF021EF3BF023EF3BF016EF3BF01D5002
:10764800D8B429EF3BF02BEF3BF04FEF3BF0010EA6
:107658000526000E06220722082208A036EF3BF076
:1076680038EF3BF04FEF3BF005C00DF006C00EF0D1
:1076780007C00FF008C010F0103410320F320E326D
:107688000D320DC005F00EC006F00FC007F010C097
:1076980008F0164A172A17BE5AEF3BF0175008E1B0
:1076A8001628D8A05AEF3BF05CEF3BF067EF3BF0B1
:1076B800000E176E1668000E056E000E066E000EA0
:1076C800076E000E086E17BE74EF3BF0175006E108
:1076D8001604D8B072EF3BF074EF3BF081EF3BF04B
:1076E800000E176E000E166E000E056E000E066E6A
:1076F800000E076E000E086E156A16C01CF01CA05E
:1077080088EF3BF08AEF3BF08DEF3BF0078E8EEF72
:107718003BF0079ED8901C30086E47EF3AF01200F5
:1077280000018D51D96EDA6A6F007FFFF6FF200ED7
:10773800F76E000EF86E0800F550250AD8A4A7EFDA
:107748003BF0A9EF3BF089EF3CF08D51D96EDA6A36
:10775800DF2A000EA76F000EA66FA6C05AF0A86910
:10776800A9698D51D96EDA6A6F007FFFF6FF200E86
:10777800F76E000EF86E0800F5502E0AD8A4C7EF71
:107788003BF0C9EF3BF0D7EF3BF08D51D96EDA6A89
:10779800DF2A8DC005F08EC006F09AEC40F005C0D7
:1077A800A8F006C0A9F000018D51D96EDA6ADF5041
:1077B800466E60001BF1F6FF200EF76E000EF86EA5
:1077C80008006F00D4FF45F0F4EF3BF0462A03EFC2
:1077D8003CF06C0E456E03EF3CF0456A03EF3CF05D
:1077E80045504C0AD8B4EAEF3BF02A0AD8B4EDEF7A
:1077F8003BF00A0AD8B4EAEF3BF0F1EF3BF0600047
:107808001BF1F6FF200EF76E000EF86E0800F5501B
:10781800660AD8A412EF3CF014EF3CF082EF3CF07B
:1078280048EF3CF08E51D96EDA6A6F007CFF40F069
:10783800040EDF264050D96EDA6A6F0078FF41F0F7
:107848006F0078FF42F06F0078FF43F06F0078FF19
:1078580044F053EF3CF08E51D96EDA6A6F007CFF2A
:1078680040F0040EDF264050D96EDA6A6F0078FFC8
:1078780041F06F0078FF42F06F0078FF43F06F002F
:1078880078FF44F053EF3CF045504C0AD8B42FEF42
:107898003CF0200AD8B416EF3CF053EF3CF08D5181
:1078A800D96EDA6A4628DF6E73EF3CF08CC038F088
:1078B80041C039F042C03AF043C03BF044C03CF00C
:1078C80060001BF1F6FF200EF76E000EF86E080040
:1078D8006F00D4FF3DF059EC30F09DEF3CF06000B4
:1078E8001BF1F6FF200EF76E000EF86E0800F5503B
:1078F800660AD8B45AEF3CF082EF3CF000018D5193
:10790800D96EDA6ADF2A9DEF3CF08D51D96EDA6ABA
:107918006F007FFFF6FF200EF76E000EF86E08006E
:10792800F550056E066A8CC007F0F6EC40F082EF61
:107938003CF012009AC02EF09BC02FF09CC030F093
:107948009DC031F01EC02EF01FC02FF020C030F0B7
:1079580021C031F0810E226EFF0E236E2EC024F05E
:107968002FC025F030C026F031C027F0180EC2EF26
:107978003CF0D8902732263225322432E82EBDEF4B
:107988003CF0245022242C6E000E23202D6E2DBE98
:10799800D7EF3CF02D5009E1170E2C5CD8A0D7EF9B
:1079A8003CF0D9EF3CF0E3EF3CF01EC01EF01FC0E6
:1079B8001FF020C020F021C021F0A6EF3DF02DBE21
:1079C800E8EF3CF0EAEF3CF05AEF3DF02CC022F033
:1079D800FF0E236EFF0E246E7F0E256E000E266EA0
:1079E8002266F9EF3CF001EF3DF0263426322532CD
:1079F80024322332222EF4EF3CF023C028F024C096
:107A080029F025C02AF026C02BF028502E14226E0B
:107A180029502F14236E2A503014246E2B50311401
:107A2800256E2250231024102510D8A41EEF3DF0F7
:107A380020EF3DF022EF3DF0D9EF3CF02EC022F0D0
:107A48002FC023F030C024F031C025F0200E32EFD3
:107A58003DF0D8902532243223322232E82E2DEF01
:107A68003DF02250231024102510D8B43EEF3DF0ED
:107A780040EF3DF048EF3DF028502E2629502F22A8
:107A88002A5030222B503122281C226E291C236EAA
:107A98002A1C246E2B1C256E22502E1623502F16BE
:107AA80024503016255031169EEF3DF02EC022F09E
:107AB8002FC023F030C024F031C025F0200E6AEF2B
:107AC8003DF0D8902532243223322232E82E65EF59
:107AD8003DF02250231024102510D8A476EF3DF055
:107AE80078EF3DF082EF3DF0000E2E6E000E2F6E07
:107AF800000E306E000E316E9EEF3DF0D8902E34A1
:107B0800226E2F34236E3034246E3134256E225089
:107B1800231024102510D8B494EF3DF096EF3DF0D3
:107B28009EEF3DF0000E2E6E000E2F6E800E306E12
:107B3800BF0E316E2EC01EF02FC01FF030C020F0D7
:107B480031C021F012000D6E0D50D8B4AEEF3DF0EB
:107B5800B0EF3DF0D2EF3DF008BEB7EF3DF0B5EF26
:107B68003DF0D2EF3DF005C009F006C00AF007C0AD
:107B78000BF008C00CF0091E0A1E0B1E0C1E092A69
:107B8800000E0A220B220C2209C00FF00AC010F0C6
:107B98000BC011F00CC012F0DAEF3DF005C00FF089
:107BA80006C010F007C011F008C012F0055006100A
:107BB80007100810D8A4E3EF3DF0E5EF3DF0EFEF34
:107BC8003DF0000E056E000E066E000E076E000EEC
:107BD800086E80EF3EF0960E0E6EF9EF3DF00E2A1D
:107BE800D8901232113210320F32000E0F14096E73
:107BF800000E10140A6E000E11140B6EFE0E1214F5
:107C08000C6E09500A100B100C10D8A40EEF3EF0A1
:107C180010EF3EF0F3EF3DF01EEF3EF00E2A010E9E
:107C28000F26000E102211221222D8901232113281
:107C380010320F32000E0F14096E000E10140A6E67
:107C4800000E11140B6EFF0E12140C6E09500A1060
:107C58000B100C10D8A433EF3EF035EF3EF012EFC6
:107C68003EF03DEF3EF00E06D8900F361036113636
:107C7800123611BE42EF3EF044EF3EF04CEF3EF0BC
:107C8800020E0E604AEF3EF04CEF3EF037EF3EF04A
:107C98000EB051EF3EF053EF3EF054EF3EF0119E20
:107CA800D8900E320EC009F00A6A0B6A0C6A09C035
:107CB8000CF00B6A0A6A096A09500F120A5010126E
:107CC8000B5011120C5012120D50D8B46EEF3EF03A
:107CD80070EF3EF078EF3EF008BE77EF3EF075EFBC
:107CE8003EF078EF3EF0128E0FC005F010C006F09F
:107CF80011C007F012C008F01200D2EC42F059ECA3
:107D080044F03E01F881F8B18CEF3EF08EEF3EF082
:107D180087EF3EF0EF516F00C0FB98F00001996BC0
:107D280098C099F0986B9811586E9951596E58C02F
:107D380005F059C006F0000E06BEFF0E076E086E6D
:107D4800010EA7EC3DF005C013F006C014F007C003
:107D580015F008C016F0330E176E330E186E530E5A
:107D6800196E3A0E1A6EA7EC37F013C054F014C00F
:107D780055F015C056F016C057F054C013F055C052
:107D880014F056C015F057C016F0000E176E000E0E
:107D9800186E480E196E430E1A6EA7EC37F013C012
:107DA800A2F014C0A3F015C0A4F016C0A5F0AA0E46
:107DB8000001926F170E936FA2C094F0A3C095F0C4
:107DC800A4C096F0A5C097F0F1EC43F0AA0E056E9A
:107DD800120E066E49EC42F044EC44F0000E0E6EB2
:107DE800010E0F6E0F50D8A4200E106E010ED1ECAC
:107DF80043F0000E0E6EAA0E0F6E106A020ED1EC42
:107E080043F0030E0001996F8A0E986F550EE82E05
:107E1800FED7982FFCD7992FFAD700D085EF3EF0E0
:107E280057EF30F0073408340E6E0E50D8A41FEF09
:107E38003FF021EF3FF02BEF3FF0000E056E000EF4
:107E4800066E000E076E000E086E98EF3FF005C034
:107E580009F006C00AF007C00BF008C00CF0200EAD
:107E68003BEF3FF0D8900C320B320A320932E82E41
:107E780036EF3FF009500D6E078EFF0E0516FF0E08
:107E88000616FF0E0716000E0816960E0E5E0EBE9C
:107E980052EF3FF050EF3FF068EF3FF00E50800A8E
:107EA800970FD8B05AEF3FF05CEF3FF05EEF3FF02E
:107EB80021EF3FF0D89008320732063205320E3EE5
:107EC8005EEF3FF080EF3FF01F0E0E646EEF3FF065
:107ED80070EF3FF078EF3FF021EF3FF0D890053694
:107EE8000636073608360E060E50D8A47EEF3FF049
:107EF80080EF3FF072EF3FF00D50D8B486EF3FF0BF
:107F080088EF3FF090EF3FF0081E071E061E056C35
:107F1800000E06220722082205C005F006C006F05A
:107F280007C007F008C008F01200000E2C14346EC9
:107F3800000E2D14356E800E2E14366E7F0E2F1403
:107F4800376E3450351036103710D8A4AEEF3FF0E6
:107F5800B0EF3FF0B8EF3FF0000E2C6E000E2D6E24
:107F6800000E2E6E000E2F6E000E3014346E000EB2
:107F78003114356E800E3214366E7F0E3314376E20
:107F88003450351036103710D8A4CDEF3FF0CFEF6E
:107F98003FF0D7EF3FF0000E306E000E316E000E4E
:107FA800326E000E336E2FAEDCEF3FF0DEEF3FF0A7
:107FB800E7EF3FF02C6C2D1ED8B02D2A2E1ED8B01E
:107FC8002E2A800E2F5633AEECEF3FF0EEEF3FF047
:107FD800F7EF3FF0306C311ED8B0312A321ED8B0DE
:107FE800322A800E3356000E2C1A000E2D1A000E5F
:107FF8002E1A800E2F1A000E301A000E311A000E9B
:10800800321A800E331A30502C5C31502D583250B1
:108018002E5833502F58D8B014EF40F016EF40F0D8
:1080280019EF40F0D8901AEF40F0D88012009EC0A7
:108038000FF09FC010F0A0C011F0A1C012F005C051
:108048000FF006C010F007C011F008C012F00FC002
:1080580009F010C00AF011C00BF012C00CF0180E95
:108068003BEF40F0D8900C320B320A320932E82E3E
:1080780036EF40F009500D6E0E6A0D500E10D8A460
:1080880048EF40F04AEF40F06AEF40F0D8900F34E4
:10809800096E10340A6E11340B6E12340C6E0950CE
:1080A8000A100B100C10D8A45CEF40F05EEF40F003
:1080B80064EF40F0000E066E020E056E99EF40F078
:1080C800000E066E030E056E99EF40F00D280E1097
:1080D800D8A471EF40F073EF40F095EF40F00FC077
:1080E80009F010C00AF011C00BF012C00CF0090E14
:1080F800D89009360A360B360C36E82E7CEF40F05D
:1081080009500A100B100C10D8B48DEF40F090EF06
:1081180040F0010E91EF40F0000E056E066A99EFEF
:1081280040F0000E066E040E056E1200000E0B6E77
:10813800000E0A6E0550D96EDA6A6F007FFFF6FFEF
:10814800200EF76E000EF86E0800F5502A0AD8A423
:10815800B0EF40F0B2EF40F0DBEF40F00550D96EE1
:10816800DA6ADF2A0650D96EDA6A020EDF26DF5C89
:10817800D96EDA6A6F0078FF0AF06F0078FF0BF0AB
:10818800F1EF40F00A0E0A026F00CCFF07F06F0013
:10819800D0FF08F00B02F3500826095007240A6E96
:1081A800000E08200B6E0550D96EDA6ADF2A0550DA
:1081B800D96EDA6A6F007FFFF6FF200EF76E000EA9
:1081C800F86E0800F550D00F096E090E0964EFEF3C
:1081D80040F0F1EF40F0C6EF40F00AC005F00BC0E8
:1081E80006F012000750D8B4FCEF40F0FEEF40F064
:1081F80006EF41F00750D8A404EF41F006EF41F034
:108208000BEF41F005508AEC44F04BEF41F007507A
:10821800D96EDA6A090ED926DE50DE10D8B417EF07
:1082280041F019EF41F032EF41F00750D96EDA6AA8
:10823800090ED9260750E16EE26A020EE126DE50E9
:10824800E65CE650800A0C6EDE50800A0C58D8B006
:1082580030EF41F032EF41F04BEF41F00750D96E6B
:10826800DA6A020ED926DF50086E0750D96EDA6A2C
:10827800DF500824D96EDA6A600017F0DFFF075074
:10828800D96EDA6A020ED926DE2A000EDD22120025
:10829800000E05140D6E000E06140E6E800E0714E7
:1082A8000F6E7F0E0814106E0D500E100F10101068
:1082B800D8A461EF41F063EF41F06BEF41F0000E9D
:1082C800056E000E066E000E076E000E086E000E9C
:1082D80009140D6E000E0A140E6E800E0B140F6E2C
:1082E8007F0E0C14106E0D500E100F101010D8A425
:1082F80080EF41F082EF41F08AEF41F0000E096E05
:10830800000E0A6E000E0B6E000E0C6E095005185A
:108318000FE10A5006180CE10B50071809E10C5040
:108328000818D8B49AEF41F09CEF41F09FEF41F064
:0A833800D890A0EF41F0D8801200A9
:108344003901A1A5A8EF41F0AAEF41F0DCEF41F01B
:10835400000E046E0A0E036ECBEF41F0CC86030EC2
:10836400026E8A0E016E560EE82EFED7012EFCD741
:10837400022EFAD7CC96030E026E8A0E016E560EAA
:10838400E82EFED7012EFCD7022EFAD70306D8A07A
:10839400040604BED8EF41F0045006E10304D8B04B
:1083A400D6EF41F0D8EF41F0B0EF41F03901A1959B
:1083B400FAEC42F01100F8EF41F0600033F0F6FF00
:1083C400600037F0F7FF000EF86E1F0EF76403D05D
:1083D4000800F55007D06F00DBFFE1FF6F00DFFFFF
:1083E400E2FFE7506CEC44F00C4A0D2A600033F0D5
:1083F400F6FF600037F0F7FF000EF86E1F0EF7640B
:1084040003D00800F55007D06F00DBFFE1FF6F00D9
:10841400DFFFE2FFE7500009D8A413EF42F015EFA5
:1084240042F0DFEF41F0120017BE1DEF42F01BEFE8
:1084340042F021EF42F0000E176E000E166E000E91
:108444001A6E000E196E31EF42F0000E066E200E09
:10845400056E13C007F0F6EC40F0194A1A2A1650BC
:10846400195C1A50800A186E1750800A1858D8A040
:108474003EEF42F040EF42F027EF42F014C00DF01F
:1084840015C00EF013C00FF0B1EC43F01200000E53
:10849400086E000E076E51EF42F0074A082A055095
:1084A4000724D96EDA6ADF50D8A45BEF42F05DEF9F
:1084B40042F04FEF42F062EF42F0074A082A062AE0
:1084C40060001BF0F6FF200EF76E000EF86E0550EC
:1084D4000724D96EDA6A08006F00D7FFDFFFDF5088
:1084E400D8A477EF42F079EF42F05FEF42F0120048
:1084F40007C00DF008C00EF005C00BF006C00CF06C
:1085040099EF42F0600037F0D9FF60003BF0DAFFEA
:10851400DF500F6E0D4A0E2A60002FF0D9FF600065
:1085240033F0DAFF60003FF0DFFF0B4A0C2A090644
:10853400D8A00A06092806E10A28D8A4A4EF42F024
:10854400A6EF42F084EF42F0120008BEACEF42F016
:10855400AEEF42F0B8EF42F005C005F006C006F0F9
:1085640007C007F008C008F0D1EF42F005C009F0D9
:1085740006C00AF007C00BF008C00CF0091E0A1E62
:108584000B1E0C1E092A000E0A220B220C2209C003
:1085940005F00AC006F00BC007F00CC008F012008A
:1085A400CA6ABA6A3A01406B070EC26E416BCB6A63
:1085B400BB6A506BC36A516BCC6ABC6A606BC46A99
:1085C400CD6ABD6A706BC56AD76A600ED66E080E36
:1085D400D56E67953901909F3A01658566853901A5
:1085E400808FA09F908FD28AD28ED28CD28E12008E
:1085F400CA6ABA6A3A01406B070EC26E416BCB6A13
:10860400BB6A506BC36A516BCC6ABC6A606BC46A48
:10861400CD6ABD6A706BC56AD76A600ED66E080EE5
:10862400D56E67953901909F3A0165856685390154
:10863400808FA09F908FD28AD28ED28CD28E12003D
:10864400000E086E000E076E3BEF43F0000E0A6E3C
:10865400000E096E094A0A2A0A5009E1A50E095CAE
:10866400D8A037EF43F039EF43F02CEF43F0074A3B
:10867400082A0550075C06500858D8A044EF43F078
:1086840046EF43F028EF43F0120090C047F054EF58
:1086940043F08FC08CF0470E00018D6F91C08EF0B7
:1086A40094EC3BF060001FF1F6FF200EF76E000E15
:1086B400F86E0800F5500009D8A463EF43F065EFA5
:1086C40043F04BEF43F0000E0001906F000E8F6FEC
:1086D400120005C009F006C00AF0072A0704086E54
:1086E400600023F0F6FF200EF76E000EF86E6000B7
:1086F40027F0D9FF60002BF0DAFF094A0A2A0800A4
:108704006F00D7FFDFFFDF50D8A48BEF43F08DEF6E
:1087140043F06FEF43F01200000E301A000E311ACE
:10872400000E321A800E331A2CC005F02DC006F04C
:108734002EC007F02FC008F030C009F031C00AF095
:1087440032C00BF033C00CF04CEC35F005C02CF00B
:1087540006C02DF007C02EF008C02FF01200000E46
:10876400126E000E116EC0EF43F010C005F0066AE1
:108774000FC007F0F6EC40F0114A122A11500D24F4
:10878400D96E12500E20DA6EDF50106E1050D8A43D
:10879400CEEF43F0D0EF43F0B7EF43F01200116E89
:1087A400020E1160D8EF43F0DAEF43F0E3EF43F049
:1087B4000E500F0B8009126E12507BEC44F0EAEF5E
:1087C40043F00E500F0BC009126E12507BEC44F0B4
:1087D4000FC00CF010C00DF0DDEC41F01200940E4F
:1087E400486E92C049F0000E4C6E000E4B6E000EA7
:1087F400536E000E526E490E00018F6F93C090F0BD
:10880400480E916F47EC43F0000192514B24D96E0E
:10881400DA6ADF6A12000550061007100810D8B48F
:1088240016EF44F018EF44F020EF44F0000E051A60
:10883400000E061A000E071A800E081A05C005F06D
:1088440006C006F007C007F008C008F0120000EEEA
:1088540000F1500EEE6AE806FDE100EE9AF01A0E01
:10886400EE6AE806FDE100EE54F0080EEE6AE80652
:10887400FDE1080ED56E600ED66E000ED76E0001B7
:1088840081EF3EF0000E066E0F0E056E22EC43F0F3
:10889400C36AC56A010E7BEC44F0380E7BEC44F0ED
:1088A4000C0E7BEC44F0060E7BEC44F01200C2800C
:1088B4003A0140813E01F851F30B0409F86FF8893D
:1088C400FF6BF16BF56BFD6BF66BF76BF36BF46B96
:1088D400F88F12000B6E60002FF0BBFFBD80BD82CD
:1088E4000000BD92000E066E010E056E22EC43F0F0
:1088F40012000B6E60002FF0BBFFBD90BD82000024
:10890400BD92000E066E030E056E22EC43F01200BB
:0289140012004F
:020000040030CA
:0A000000F8FFFFFF9FFFFFFFFFFF67
:00000001FF
