:0400000010EF00F00D
:10002000000EC56E0F0E206EFB0E216EFB0E05D06E
:10003000FB0E205C2FE039E632E70F0E016E640EF6
:10004000022A015EFDE20206012602C062F0026A97
:100050000A0E022A015EFDE20206012602C061F0DC
:1000600001C060F0026AFB0E016E640E022A015E9E
:10007000FDE20206012602C072F0026A0A0E022A9E
:10008000015EFDE20206012602C071F001C070F0BF
:1000900018EF00F0000E226ECD6E00001200020E6E
:1000A000226E040ECD6E00001200010E226E020EB2
:0600B000CD6E00001200FD
:020000040030CA
:0A000000F8FFFFFF9FFFFFFFFFFF67
:00000001FF
