:0400000057EF18F0AE
:022000000000DE
:103008002B0C2B0C2B0C2B0C2B0C2B0C2B0C2B0C00
:10301800CC0C2B0C2B0C2B0C2B0C2B0C2B0C2B0C4F
:103028002B0C2B0C2B0C2B0C2B0C2B0C2B0C2B0CE0
:103038002B0C2B0C2B0C2B0C2B0C2B0C2B0C2B0CD0
:103048002B0C2B0C2B0C2B0C2B0C2B0C2B0C2B0CC0
:103058002B0C2B0C2B0C2B0C2B0C2B0C2B0C2B0CB0
:103068002B0C2B0C2B0C2B0C2B0C2B0C2B0C2B0CA0
:103078002B0C2B0C2B0C2B0C2B0C2B0C2B0C2B0C90
:103088002B0C2B0C2B0C2B0C2B0C2B0C2B0C2B0C80
:103098002B0C2B0C2B0C2B0C2B0C2B0C2B0C2B0C70
:1030A8002B0C2B0CFF00B0EF19F083EF18F03F0E3C
:1030B800CD6EB9EF18F0060ECD6EB9EF18F05B0EB5
:1030C800CD6EB9EF18F04F0ECD6EB9EF18F0660E51
:1030D800CD6EB9EF18F06D0ECD6EB9EF18F07D0E0C
:1030E800CD6EB9EF18F0070ECD6EB9EF18F07F0E60
:1030F800CD6EB9EF18F06F0ECD6EB9EF18F009C0AC
:1031080003F00AC004F00450000AD8B48EEF18F097
:10311800B9EF18F00350000AD8B45BEF18F0010AB1
:10312800D8B45FEF18F0030AD8B463EF18F0010AB7
:10313800D8B467EF18F0070AD8B46BEF18F0010A93
:10314800D8B46FEF18F0030AD8B473EF18F0010A77
:10315800D8B477EF18F00F0AD8B47BEF18F0010A4B
:10316800D8B47FEF18F0B9EF18F012000EEC19F090
:1031780059EC18F0C2EF18F06EEC19F00D50D8B4F5
:10318800C8EF18F0CAEF18F0C0EF18F0030E086E79
:103198008A0E076E560EE82EFED7072EFCD7082E8D
:1031A800FAD70A0E09026F00CCFF07F06F00D0FFB4
:1031B80008F00A02F350082607C00BF008C00CF00C
:1031C8000D6A000E0A6E000E096E59EC18F0EFEF4A
:1031D80018F06EEC19F00D50D8B4F5EF18F0F7EFC1
:1031E80018F0EDEF18F0030E086E8A0E076E560EF3
:1031F800E82EFED7072EFCD7082EFAD709500B2445
:103208000B6E0A500C200C6E3EEC19F0BAEF18F059
:1032180057EF18F0CA6ABA6A3A01406B070EC26ED5
:10322800416BCB6ABB6A506B030EC36E516BCC6AA1
:10323800BC6A606BC46ACD6ABD6A706BC56A0D6A88
:10324800000E0A6E000E096E000E0C6E000E0B6E5C
:10325800000E0F6E170E0E6ED280D28AD28ED28CCE
:10326800390181819181A191D76A300ED66E080EFD
:10327800D56E1200000E0A6E070E096E59EC18F092
:103288000E500B1807E10F500C18D8A44EEF19F088
:1032980050EF19F060EF19F0CA8A1A0E066E5E0E2A
:1032A800056E6E0EE82EFED7052EFCD7062EFAD731
:1032B80000D0CA9A6DEF19F0CB840B0E066E260E5D
:1032C800056E5E0EE82EFED7052EFCD7062EFAD721
:1032D800CB9412008FEF19F0CAA075EF19F077EFB1
:1032E80019F086EF19F0094A0A2A59EC18F0040E69
:1032F800066ECF0E056E020EE82EFED7052EFCD701
:10330800062EFAD7CBA28BEF19F08DEF19F08FEFBD
:1033180019F0010E0D6E0D50D8B495EF19F097EF16
:1033280019F070EF19F012003901A1A19EEF19F000
:10333800A0EF19F0ADEF19F0CB840B0E026E260E3C
:10334800016E5E0EE82EFED7012EFCD7022EFAD7AC
:10335800CB943901A19111000D6A0C6A0B6A0A6AB3
:10336800096A080ED56E300ED66E000ED76E0001B3
:04337800BAEF18F0A0
:020000040030CA
:0A000000F8FFFFFF9FFFFFFFFFFF67
:00000001FF
