:0400000010EF00F00D
:10002000206AE86A08D811D8CB6A19D8600083F032
:10003000CDFF15EF00F03F01CD6A3F01BD6A3A01E7
:10004000706B3F01000EC56E12003F01CB6A3F018D
:10005000BB6A3A01506B3F01F80EC36E120020508C
:10006000CB80CBB6010ECBB8040ECBBE070ECBBCFB
:100070000A0ECB90CB82CBB6020ECBB8050ECBBE10
:10008000080ECBBC000ECB92CB84CBB6030ECBB804
:10009000060ECBBE090ECBBC0B0ECB94206E12000D
:020000040030CA
:0A000000F8FFFFFF9FFFFFFFFFFF67
:00000001FF
