:0400000010EF00F00D
:10002000206AE86A6DD976D9CB6A7ED9600083F000
:06003000CDFF15EF00F00A
:100300003F01CD6B3F01BD6B3A01706B3F01000EA9
:10031000C56F12003F01CB6B3F01BB6B3A01506BC5
:100320003F01F80EC36F12002051CB81CBB7010EF5
:10033000CBB9040ECBBF070ECBBD0A0ECB91CB833E
:10034000CBB7020ECBB9050ECBBF080ECBBD000E4E
:10035000CB93CB85CBB7030ECBB9060ECBBF090E23
:0A036000CBBD0B0ECB95206F1200F1
:020000040030CA
:0A000000F8FFFFFF9FFFFFFFFFFF67
:00000001FF
