:0400000010EF00F00D
:100020004FD858D83F0E006E060E016E5B0E026E62
:100030004F0E036E660E046E6D0E056E7D0E066E1F
:10004000070E076E7F0E086E670E096E770E0A6E3A
:100050007C0E0B6E390E0C6E5E0E0D6E790E0E6EF2
:10006000710E0F6E000EE96EEA6E600003F0CDFFB8
:1000700074EC00F06F002CFF20F0010E205C08E013
:10008000020E205C0EE0030E205C14E038EF00F05E
:10009000E92AE998E99AE99CE99EEF50CD6E38EF9C
:1000A00000F0E906E998E99AE99CE99EEF50CD6EE7
:1000B00038EF00F0000EE96EEF50CD6E38EF00F033
:1000C0003F01CD6A3F01BD6A3A01706B3F01000EEE
:1000D000C56E12003F01CB6A3F01BB6A3A01506B0B
:1000E0003F01FF0EC36E1200460E106E320E116EEF
:1000F000320E126E1006FEE1460E106E1106FAE187
:0A010000320E116E1206F6E1120035
:020000040030CA
:0A000000F8FFFFFF9FFFFFFFFFFF67
:00000001FF
