:0400000010EF00F00D
:10002000000EC56E100E206E230E216E230E04D01E
:10003000205C2FE032E636E7100E016E640E022AD5
:10004000015EFDE20206012602C060F0026A0A0EAD
:10005000022A015EFDE20206012602C061F001C033
:1000600062F0026A230E016E640E022A015EFDE256
:100070000206012602C070F0026A0A0E022A015E20
:10008000FDE20206012602C071F001C072F018EF15
:1000900000F0000E226ECD6E1200020E226E040ED3
:1000A000CD6E1200010E226E020ECD6E0000120007
:020000040030CA
:0A000000F8FFFFFF9FFFFFFFFFFF67
:00000001FF
